:100000000C94FD000C9425010C9425010C94250101
:100010000C9425010C9425010C9425010C942501C8
:100020000C9425010C9425010C9425010C942501B8
:100030000C9425010C9425010C9425010C942501A8
:100040000C9447090C9425010C944F0B0C94290B2C
:100050000C9425010C9425010C9425010C94250188
:100060000C9433070C9425014E414E494E49545986
:10007000494E46CDCCCC3D0AD7233C17B7D1387773
:10008000CC2B329595E6241FB14F0A000020410089
:1000900000C84200401C4620BCBE4CCA1B0E5AAED3
:1000A000C59D7400407A10F35A00A0724E180900E2
:1000B00010A5D4E80000E87648170000E40B5402CD
:1000C0000000CA9A3B000000E1F505000080969808
:1000D00000000040420F000000A086010000001058
:1000E0002700000000E8030000000064000000009A
:1000F000000A00000000000100000000002C76D87B
:1001000088DC674F0823DFC1DFAE59E1B1B796E560
:10011000E3E453C63AE651997696E8E6C28426EBC4
:10012000898C9B62ED407C6FFCEFBC9C9F40F2BAD7
:10013000A56FA5F490055A2AF75C936B6CF9676D6F
:10014000C11BFCE0E40D47FEF520E6B500D0ED90C4
:100150002E0300943577050080841E080000204E91
:100160000A000000C80C333333330F986E1283112A
:1001700041EF8D2114893BE65516CFFEE6DB18D101
:10018000844B381BF77C1D901DA4BBE424203284D3
:10019000725E228100C9F124ECA1E53D2700000038
:1001A00000230026002900040404040404040402BB
:1001B0000202020202030303030303010204081004
:1001C00020408001020408102001020408102000D1
:1001D000000000240027002A00000000002500285D
:1001E000002B0000000008000201000003040700CB
:1001F00000000000000000004F1611241FBECFEFCA
:10020000D8E0DEBFCDBF13E0A0E0B1E0E4EDFFE356
:1002100002C005900D92A230B107D9F725E0A2E007
:10022000B3E001C01D92A936B207E1F710E0CDEFAF
:10023000D0E004C02197FE010E94C51CCC3FD1072D
:10024000C9F70E94B00C0C94E81F0C940000309188
:10025000B203313208F04BC08091D9038111FCCF39
:100260009091B80422E02093D90321E02093D80391
:100270002FEF2093D7031092D6033093D503E2E9F2
:10028000F3E0A3EBB3E020E0321721F041914D936E
:100290002F5FFACF1092D4032091D403990F922BA1
:1002A0009093D4039091D303913061F41092D303CF
:1002B0009091D4039093BB009091BC0093FDF8CF34
:1002C00095EC01C095EE9093BC009091D9039230CB
:1002D000E1F39091D7039F3F79F08091D70380326B
:1002E00041F08091D703803331F084E005C081E094
:1002F00003C082E001C083E0109291031092B20328
:10030000109290030895CF92DF92EF92FF92CF93D5
:10031000DF93B091AC04882311F0AB2F01C0A0E0B3
:100320008091AD0490E0880F991F83569E4FC09036
:10033000B204D090B304E090B404F090B50420E08F
:1003400030E0FC01C591D491E881EB23A90160E084
:1003500070E0EA130CC02F5F3F4F4C155D056E0532
:100360007F0578F33FEF2FEF8FEF9FEF03C0322F22
:10037000252FCB01632F722FDF91CF91FF90EF904C
:10038000DF90CF9008959091D9039111FCCF982FD1
:10039000813208F090E281E08093D9038093D80302
:1003A0002FEF2093D7031092D603290F2093D50364
:1003B0008093D4038091D4038E6E8093D403809174
:1003C000D303813061F41092D3038091D4038093DE
:1003D000BB008091BC0083FDF8CF85EC01C085EEA9
:1003E0008093BC008091D9038130E1F38091D603E2
:1003F000891710F49091D603E3EBF3E0ACEDB3E092
:1004000080E0891721F021912D938F5FFACF109210
:10041000DB038093DA0308951F93CF93DF9391E07A
:100420009093900397E79093B804109291031092E1
:10043000B203682F8CEF93E00E94D5050E9427013C
:1004400082E090E00E94C3018091DA0390E0209165
:10045000DB03821B910982309105ECF38CEF93E072
:100460000E948C05182F8CEF93E00E948C05D12FF1
:1004700020E0C22F9E01282BC901DF91CF911F914F
:1004800008950E940C02982789279827089591E0E3
:100490009093900397E79093B80410929103109271
:1004A000B203682F8CEF93E00E94D5050E942701CC
:1004B00081E090E00E94C3019091DA038091DB0318
:1004C0009817F1F38CEF93E00E948C050895CF9379
:1004D000C62F91E09093900397E79093B804109201
:1004E00091031092B203682F8CEF93E00E94D50520
:1004F0006C2F8CEF93E00E94D505CF910C942701CF
:100500008F929F92AF92BF92CF92DF92EF92FF9223
:1005100081E08093900387E78093B8041092910361
:100520001092B2036AEF8CEF93E00E94D5050E940F
:10053000270183E090E00E94C3018091DA0390E0FC
:100540002091DB03821B910983309105ECF38CEF42
:1005500093E00E948C054C01990FAA08BB08BA2CA5
:10056000A92C982C88248CEF93E00E948C056C01B8
:10057000990FEE08FF08C828D928EA28FB28FE2C86
:10058000ED2CDC2CCC248CEF93E00E948C05092E02
:10059000000CAA0BBB0BBC01CD016C297D298E2957
:1005A0009F29FF90EF90DF90CF90BF90AF909F90EA
:1005B0008F9008958F929F92AF92BF92CF92DF92C9
:1005C000EF92FF920E948002EBE6F3E020813181FE
:1005D000C72ED82EE92EFF24E7FCFA94C21AD30ABC
:1005E000E108F108DC01CB0157E0B595A795979597
:1005F00087955A95D1F7220F331F4C015D01821A5E
:10060000930AA108B108A5019401A281B3810E94B7
:10061000451C4B015C017BE0B594A79497948794AB
:100620007A95D1F7A7019601C701B6010E94B51CC2
:100630009B01AC01ACE05595479537952795AA9558
:10064000D1F7A481B5810E94451CDC01CB012EE0CD
:10065000B595A795979587952A95D1F7A50194010A
:10066000280F391F4A1F5B1F21A332A343A354A3A2
:10067000A5E0B0E00E943A1CDC01CB0180589F4FFE
:10068000AF4FBF4F692F7A2F8B2F992787FD9A95F0
:100690000E94FB1A20E030E048EC52E40E94381D32
:1006A000FF90EF90DF90CF90BF90AF909F908F9092
:1006B0000895CF92DF92EF92FF920F931F93CF9303
:1006C000DF93CDB7DEB7C054D1400FB6F894DEBF8C
:1006D0000FBECDBF0E943B090091AE041091AF0444
:1006E0002091B0043091B1046B017C01C01AD10A91
:1006F000E20AF30A40EDC41647E0D406E104F1042F
:1007000018F48091B604CAC06093AE047093AF042D
:100710008093B0049093B1041092A9041092A8049D
:100720001092A7041092A6041092A50462E0809192
:10073000AA040E94AE0861E070E080E090E00E94B0
:10074000010961E08091AA040E94AE0860E08091F6
:10075000AA040E9461088091AB048551823028F47C
:100760008BE291E10197F1F706C064E170E080E06F
:1007700090E00E94010962E08091AA040E94AE0804
:100780008091B70490E08230910538F0880F991F6E
:10079000880F991F05970197F1F7F89480E00E9460
:1007A00083016F3F7F4F8F4F9F4F21F41092B6040C
:1007B000789441C081E00E9483016F3F7F4F8F4F4B
:1007C0009F4FA1F38E010F5F1F4F6E012FEBC21AD7
:1007D0002EEFD20A780180E00E948301F701608346
:1007E00071838283938381E00E948301F701648394
:1007F000758386839783F8E0EF0EF11CEC14FD04FB
:1008000051F7789420E030E0F801C080D180E28098
:10081000F3804481558166817781FFEFCF16DF0633
:10082000EF06FF0631F04F3F8FEF58076807780754
:1008300021F41092B60480E031C0F90183E0F5950F
:10084000E7958A95E1F7EB55FB4F8081880FC41639
:10085000D506E606F70608F4816080832F5F3F4FD8
:10086000085F1F4F2832310579F62091A90430E046
:100870004091A5048091A60490E0840F911D4091C1
:10088000A704840F911D4091A804840F911D9927FE
:100890002817390771F681E08093B604C05CDE4FFB
:1008A0000FB6F894DEBF0FBECDBFDF91CF911F9181
:1008B0000F91FF90EF90DF90CF900895FC01808121
:1008C00091810C947B1E009769F0FC01019000203F
:1008D000E9F73197AF01481B590BBC0188E094E060
:1008E0000C94920980E090E008958BE492E00C94DF
:1008F0006304FC01448155816081718188E094E04A
:100900000C949209CF93DF930E947904EC010E942A
:1009100075048C0F9D1FDF91CF910895EF92FF9288
:100920000F931F93CF93DF93EC01FB01048115819B
:10093000E080F180E114F104C9F001151105C9F05E
:100940008C819D81080F191FB801CE010E94A30A56
:10095000882361F0288139818C819D81B701820FC4
:10096000931F0E94E11F1D830C8303C0CE010E94D0
:10097000CA0ACE01DF91CF911F910F91FF90EF90A6
:100980000895EF92FF920F931F93CF93DF93CDB70C
:10099000DEB762970FB6F894DEBF0FBECDBF8C01F5
:1009A000CB01F80111821082138212821582148207
:1009B0004AE09E012F5F3F4F7901B9010E9416174F
:1009C000F70101900020E9F73197AF014E195F0957
:1009D000B701C8010E94DC0A62960FB6F894DEBF28
:1009E0000FBECDBFDF91CF911F910F91FF90EF9080
:1009F0000895CF93DF930E946304EC010E94750475
:100A00008C0F9D1FDF91CF9108958F929F92AF928F
:100A1000BF920F931F93CF93DF93CDB7DEB7A1970C
:100A20000FB6F894DEBF0FBECDBF19A2423008F456
:100A30004AE08E010F5D1F4F842E912CA12CB12C0A
:100A4000A50194010E94841CE62FB901CA0101503E
:100A50001109EA3014F4E05D01C0E95CD801EC93BF
:100A6000232B242B252B61F7C8010E946304A19638
:100A70000FB6F894DEBF0FBECDBFDF91CF911F91AF
:100A80000F91BF90AF909F908F9008950C94630446
:100A900085ED8093BC008091BC0084FDFCCF10925A
:100AA000D903089540913E05262F30E0240F311DD3
:100AB00021323105DCF42091D9032430C9F4FC0142
:100AC00080E090E0861758F430913E052191DC01DA
:100AD000A25EBA4FA30FB11D2C930196F3CF809164
:100AE0003E05680F60933E0580E0089581E008951B
:100AF00082E00895089508950895E091DB038091C0
:100B0000DA03E81730F4F0E0E452FC4F808190E023
:100B100008958FEF9FEF08959091DB038091DA03A2
:100B2000981750F4E92FF0E0E452FC4F208130E0B8
:100B30009F5F9093DB0302C02FEF3FEFC901089541
:100B40008091DA0390E02091DB03821B91090895E4
:100B5000CF92DF92EF92FF920F931F93CF93DF9389
:100B60007C01CB018A0120919003222389F0EB01C3
:100B70006B01C40ED51ECC15DD0569F06991D70156
:100B8000ED91FC910190F081E02DC7010995F3CF23
:100B9000642F0E945205C801DF91CF911F910F91E0
:100BA000FF90EF90DF90CF900895CF93DF931F9247
:100BB000CDB7DEB76983209190032223D1F0209135
:100BC000B203203240F021E030E0FC013383228385
:100BD00080E090E015C080919103E82FF0E0EE56A0
:100BE000FC4F998190838F5F809391038093B20330
:100BF00005C061E0CE0101960E94520581E090E0BF
:100C00000F90DF91CF9108953FB7F89480911A0526
:100C100090911B05A0911C05B0911D0526B5A89BC0
:100C200005C02F3F19F00196A11DB11D3FBFBA2F7E
:100C3000A92F982F8827820F911DA11DB11DBC01DE
:100C4000CD0142E0660F771F881F991F4A95D1F7A3
:100C50000895CF92DF92EF92FF92CF93DF936B01D3
:100C60007C016DE288E094E00E94280AEC0166278E
:100C70007727CB016C197D098E099F094AE00E94F4
:100C800005058C0F9D1FDF91CF91FF90EF90DF90B6
:100C9000CF900895CF93DF938EE492E00E944605B3
:100CA000CDEBD4E048A159A16AA17BA18BEE91E0E4
:100CB0000E94D50B8DED91E00E9446054CA15DA1EF
:100CC0006EA17FA18AE592E00E94D50B8DED91E0A7
:100CD0000E94460560910B0586E692E00E94810B1A
:100CE0008DED91E00E94460560910E058AE792E045
:100CF0000E94810B8DED91E00E9446054091FD041C
:100D00005091FE046091FF047091000587EE91E020
:100D10000E94D50B8DED91E00E94460548A959A986
:100D20006AA97BA985ED91E00E94D50B8DED91E03C
:100D30000E94460548AD59AD6AAD7BAD8EE892E0A4
:100D40000E94D50B8DED91E00E9446054CAD5DAD46
:100D50006EAD7FAD8BE992E00E94D50B8DED91E0F9
:100D60000E9446054CA95DA96EA97FA98FED91E06F
:100D70000E94D50B8DED91E00E9446056091100513
:100D800084EF91E00E94810B8DED91E00E94460579
:100D900060910105709102058AEA92E00E949F0B22
:100DA0008DED91E00E944605609107057091080560
:100DB00086EB92E00E949F0B8DED91E00E9446052C
:100DC0006091090570910A0584EC92E00E949F0BE6
:100DD0008DED91E00E944605609103057091040538
:100DE00084ED92E00E949F0B8DED91E00E944605FC
:100DF0006091140586EE92E00E94810B8DED91E0EA
:100E00000E944605609113058DEE92E00E94810BD1
:100E100084EF92E00E9446050E94750488E094E009
:100E2000DF91CF910C94750AFC0124813581232B2D
:100E300031F421E061157105A1F0FB0108C0FC014E
:100E4000808191816115710531F421E0FC0180817F
:100E5000882339F005C00E94D81F21E0892B09F0B2
:100E600020E0822F08951F920F920FB60F92112447
:100E70002F933F934F935F936F937F938F939F93A2
:100E8000AF93BF93EF93FF938091B900887F803633
:100E900009F49CC068F5883209F45BC090F4803195
:100EA00009F454C038F4882309F4F6C0883009F4F2
:100EB0004DC0F6C0883109F44CC0803209F45DC0E1
:100EC000EFC0803409F468C048F4803309F455C099
:100ED000883309F0E5C08093D703D8C0803509F482
:100EE0004FC0883509F45DC0883409F0D9C0D6C038
:100EF000883909F4C7C0A8F4883709F467C038F402
:100F0000883609F463C0803709F460C0C9C08838E6
:100F100009F4B8C0803909F45FC0803809F0C0C056
:100F20005BC0803B09F486C038F4803A09F466C09F
:100F3000883A09F47FC0B4C0803C09F4A7C0883C5B
:100F400009F4A4C0883B09F48AC0AAC08091D403E4
:100F500010C09091D6038091D503981770F5E09159
:100F6000D60381E08E0F8093D603F0E0ED54FC4F62
:100F700080818093BB0085EC86C08093D7038EC0B0
:100F8000E091D60381E08E0F8093D6038091BB0061
:100F9000F0E0ED54FC4F80839091D6038091D5030F
:100FA0006EC0E091D60381E08E0F8093D6038091CE
:100FB000BB00F0E0ED54FC4F80838091D803811199
:100FC0006DC081E08093D30384EA61C083E08093A5
:100FD000D90310926005CFCF80916005803208F070
:100FE00051C0E091600581E08E0F80936005809193
:100FF000BB00F0E0E05CFA4F8083BDCF85EC8093CE
:10100000BC001092D90380916005803230F4E091E9
:101010006005F0E0E05CFA4F10826091600570E0DE
:10102000E091BB04F091BC0480E495E00995109236
:10103000600536C084E08093D90310923F0510927A
:101040003E05E091B904F091BA04099580913E05FE
:10105000811105C081E080933E0510921E05E0914C
:101060003F0581E08E0F80933F05F0E0E25EFA4F8E
:1010700080818093BB0090913F0580913E05981739
:1010800008F479CF85E88093BC000AC085EC809392
:10109000BC001092D90304C01092D7030E944805E7
:1010A000FF91EF91BF91AF919F918F917F916F9140
:1010B0005F914F913F912F910F900FBE0F901F9016
:1010C000189590E0FC01ED51FE4F2491FC01E55490
:1010D000FE4F3491FC01E955FE4FE491EE2309F4F3
:1010E0003CC0222339F1233091F038F42130A9F0AB
:1010F000223001F584B58F7D12C0273091F0283061
:10110000A1F02430B9F4809180008F7D03C08091DC
:1011100080008F77809380000DC084B58F7784BD69
:1011200009C08091B0008F7703C08091B0008F7D9F
:101130008093B000F0E0EE0FFF1FE752FE4FA59145
:10114000B4919FB7F894611104C08C913095382305
:1011500002C0EC913E2B3C939FBF0895CF93DF9349
:1011600090E0FC01E554FE4F2491FC01E955FE4F4F
:101170008491882361F190E0880F991FFC01E1536D
:10118000FE4FC591D491FC01E752FE4FA591B49159
:10119000611109C09FB7F8948881209582238883C4
:1011A000EC912E230BC0623061F49FB7F8948881D4
:1011B000322F309583238883EC912E2B2C939FBF65
:1011C00006C08FB7F894E8812E2B28838FBFDF915C
:1011D000CF9108958E3008F08E5087708064809390
:1011E0007C0080917A00806480937A0080917A00FC
:1011F00086FDFCCF809178002091790090E0922BC1
:1012000008958F929F92AF92BF92CF92DF92EF920A
:10121000FF926B017C010E9404064B015C01C1142A
:10122000D104E104F104F1F00E940406DC01CB01D9
:1012300088199909AA09BB09883E9340A105B105FF
:1012400070F321E0C21AD108E108F10888EE880E97
:1012500083E0981EA11CB11CC114D104E104F10467
:1012600019F7DDCFFF90EF90DF90CF90BF90AF9058
:101270009F908F9008952FB7F89460911605709104
:10128000170580911805909119052FBF08951F9299
:101290000F920FB60F9211242F933F938F939F932A
:1012A000AF93BF938091160590911705A0911805F3
:1012B000B09119053091150523E0230F2D3720F447
:1012C0000196A11DB11D05C026E8230F0296A11DA0
:1012D000B11D209315058093160590931705A093D3
:1012E0001805B093190580911A0590911B05A091DE
:1012F0001C05B0911D050196A11DB11D80931A0515
:1013000090931B05A0931C05B0931D05BF91AF9151
:101310009F918F913F912F910F900FBE0F901F9033
:1013200018950895CF92DF92EF92FF920F931F933B
:10133000CF93DF936C017A018B01C0E0D0E0CE1532
:10134000DF0581F0D8016D918D01D601ED91FC9101
:101350000190F081E02DC6010995892B11F02196AD
:10136000EECF7E01C701DF91CF911F910F91FF90CA
:10137000EF90DF90CF90089580E090E00895FC0119
:10138000538D448D252F30E0842F90E0821B930BEA
:10139000541710F0CF96089501970895FC01918D90
:1013A000828D981761F0828DDF01A80FB11D5D96C7
:1013B0008C91928D9F5F9F73928F90E008958FEF35
:1013C0009FEF0895FC01918D828D981731F0828DE9
:1013D000E80FF11D858D90E008958FEF9FEF089540
:1013E000FC01918D228D892F90E0805C9F4F821BA4
:1013F00091098F739927089588E094E00E94F0097D
:1014000021E0892B09F420E0822F0895FC01848DCE
:10141000DF01A80FB11DA35ABF4F2C91848D90E01E
:1014200001968F739927848FA689B7892C93A089F9
:10143000B1898C91837080648C93938D848D981383
:1014400006C00288F389E02D80818F7D8083089516
:10145000EF92FF920F931F93CF93DF93EC0181E004
:10146000888F9B8D8C8D981305C0E889F9898081C0
:1014700085FD26C0F62E0B8D10E00F5F1F4F0F73FA
:101480001127E02E8C8DE8120CC00FB607FCFACFA6
:10149000E889F989808185FFF5CFCE010E94060A8F
:1014A000F1CF8B8DFE01E80FF11DE35AFF4FF08263
:1014B0009FB7F8940B8FEA89FB89808180620AC00C
:1014C0009FB7F894EE89FF896083E889F989808164
:1014D0008370806480839FBF81E090E0DF91CF9133
:1014E0001F910F91FF90EF900895CF93DF93EC0140
:1014F000888D8823C9F0EA89FB89808185FD05C034
:10150000A889B9898C9186FD0FC00FB607FCF5CF6D
:10151000808185FFF2CFA889B9898C9185FFEDCFB5
:10152000CE010E94060AE7CFDF91CF91089580E0B7
:1015300090E0892B29F00E94FC0981110C94000095
:1015400008950E94CA1F0F931F93CF93DF93EC015E
:1015500088819981009729F02A813B8126173707D6
:1015600088F48B016F5F7F4F0E94041F009761F02A
:10157000998388831B830A832C813D81232B11F45B
:10158000FC01108281E001C080E0DF91CF911F91CA
:101590000F910895CF93DF93EC0188819981009793
:1015A00011F00E947B1E198218821D821C821B82F0
:1015B0001A82DF91CF910895EF92FF920F931F93BC
:1015C000CF93DF93EC017B018A01BA010E94A30A49
:1015D000811104C0CE010E94CA0A07C01D830C837A
:1015E000B701888199810E94E11FCE01DF91CF91DF
:1015F0001F910F91FF90EF900895CF93DF93EC012F
:101600006115710559F0FB0101900020E9F7319750
:10161000AF01461B570B0E94DC0A02C00E94CA0A97
:10162000CE01DF91CF910895FC01118210821382C7
:101630001282158214826115710551F0FB0101902F
:101640000020E9F73197AF01461B570B0C94DC0AD9
:1016500008951F920F920FB60F9211242F933F936C
:101660004F935F936F937F938F939F93AF93BF93AA
:10167000EF93FF9388E094E00E94060AFF91EF91B8
:10168000BF91AF919F918F917F916F915F914F919A
:101690003F912F910F900FBE0F901F9018951F92A2
:1016A0000F920FB60F9211242F938F939F93EF9366
:1016B000FF93E0911804F09119048081E0911E04D9
:1016C000F0911F0482FD12C09081809121048F5FF0
:1016D0008F7320912204821751F0E0912104F0E0F1
:1016E000E85FFB4F958F8093210401C08081FF91BB
:1016F000EF919F918F912F910F900FBE0F901F90A0
:1017000018950F931F93CF938C01C62F8DE891E00E
:101710000E944605C8010E94460587EF92E00E949C
:1017200046056C2F70E080E090E04AE00E940505DD
:1017300088E094E0CF911F910F910C94750A0F935C
:101740001F93CF93DF938C01EB018DE891E00E9412
:101750004605C8010E94460587EF92E00E944605B3
:10176000BE010D2E000C880B990B0E94FB1A9B01E9
:10177000AC010E94DE1D811102C0BE0102C060E00A
:1017800070E0072E000C880B990B97FF03C00E9496
:10179000290603C04AE00E94050588E094E0DF9135
:1017A000CF911F910F910C94750A8F929F92AF92D7
:1017B000BF92CF92DF92EF92FF925C016A017B01B0
:1017C0008DE891E00E944605C5010E94460587EF1D
:1017D00092E00E944605A7019601C701B6010E944A
:1017E000DE1D882319F0C12CD12C7601460157014A
:1017F000E894B7F82FEF3FEF4FE75FE7C501B4017B
:101800000E94DE1D882309F484C02FEF3FEF4FE7CD
:101810005FE4C701B6010E94D91D18162CF48EEFA3
:1018200092E00E94630469C02FEF3FEF4FE75FEC47
:10183000C701B6010E94F41A87FDF1CF20E030E025
:10184000A901C701B6010E94F41A87FF09C06DE221
:1018500088E094E00E94280AF7FAF094F7F8F094F0
:101860002AE037ED43EA5BE3C701B6010E94CC1CD6
:101870004B015C010E94AA1D6B017C010E94F91AB8
:101880009B01AC01C501B4010E94CB1C4B015C0162
:101890004AE0C701B6010E9405056EE288E094E0C7
:1018A0000E94280A20E030E040E251E4C501B40182
:1018B0000E945A1B4B015C010E94AA1D6B01E12C86
:1018C000F12C4AE0C701B6010E940505C701B60127
:1018D0000E94F91A9B01AC01C501B4010E94CB1C06
:1018E00020E030E040E251E40E945A1B0E94AA1D11
:1018F00080E090E04AE00E94050588E094E0FF90D7
:10190000EF90DF90CF90BF90AF909F908F900C940E
:10191000750A2FEF3FEF4FE75FE7C501B4010E9463
:10192000F41A18160CF071CF8AEF92E07ACF88E0A3
:1019300094E00E94F009892B29F088E094E00E944D
:10194000CE09F5CF089560E00C946108CF93C82FBD
:1019500060E00E94610861E08C2FCF910C94AE088A
:10196000CF93DF93CDB7DEB7AF970FB6F894DEBF56
:101970000FBECDBF789484B5826084BD84B581608C
:1019800084BD85B5826085BD85B5816085BD80914A
:101990006E00816080936E001092810080918100C2
:1019A00082608093810080918100816080938100BA
:1019B000809180008160809380008091B10084607C
:1019C0008093B1008091B00081608093B0008091DD
:1019D0007A00846080937A0080917A00826080939C
:1019E0007A0080917A00816080937A0080917A00F9
:1019F000806880937A001092C100E0911804F09101
:101A0000190482E08083E0911404F091150410829F
:101A1000E0911604F09117048FEC8083109220045B
:101A2000E0911C04F0911D0486E08083E0911A048B
:101A3000F0911B04808180618083E0911A04F09111
:101A40001B04808188608083E0911A04F0911B045C
:101A5000808180688083E0911A04F0911B0480816A
:101A60008F7D80831092DB031092DA031092910332
:101A70001092B2031092D90381E08093D8031092A0
:101A8000D30361E082E10E94610861E083E10E948A
:101A900061088091B9008E7F8093B9008091B90070
:101AA0008D7F8093B90088E48093B80085E48093AB
:101AB000BC008AE795E09093BA048093B9048BE761
:101AC00095E09093BC048093BB0480ED0E94470294
:101AD000803609F097C088E80E94410290936C0319
:101AE00080936B038AE80E94410290936E03809377
:101AF0006D038CE80E9441029093700380936F0302
:101B00008EE80E944102909372038093710380E9F2
:101B10000E944102909374038093730382E90E94B0
:101B20004102909376038093750384E90E944102F9
:101B3000909378038093770386E90E944102909303
:101B40007A038093790388E90E94410290937C0391
:101B500080937B038AE90E94410290937E038093E5
:101B60007D038CE90E9441029093800380937F0360
:101B70008EE90E944102909382038093810381EA5F
:101B80000E9447028093830381EE0E94410290935A
:101B900085038093840383EE0E944702809386032B
:101BA00084EE0E944702182F85EE0E94470200E152
:101BB000109F900111248F70282B3093880320935D
:101BC000870386EE0E944702182F85EE0E94470287
:101BD00040E1149F9001112482958F70282B30933F
:101BE0008A032093890387EE0E94470280938B0328
:101BF00065E082EF0E94670267EB84EF0E94670254
:101C000011E001C010E084E090E00E94A60C85E0A5
:101C100090E00E94A60C87E090E00E94A60C86E06F
:101C200090E00E94A60C83E090E00E94A60C88E061
:101C300090E00E94A60C89E090E00E94A60C111191
:101C400018C062E08091AA040E94AE080E943B097D
:101C5000DC01CB01805D9740A109B1098093AE04FE
:101C60009093AF04A093B004B093B10487E3809342
:101C7000B7041092DD041092DE041092DF0410927B
:101C8000E0041092E1041092E2041092E304109236
:101C9000E4041092E5041092E6041092E704109216
:101CA000E8041092E9041092EA041092EB041092F6
:101CB000EC0480E090E0A0EFB1E48093ED04909319
:101CC000EE04A093EF04B093F0041092F10410928C
:101CD000F2041092F3041092F40480E090E0ACE877
:101CE000B2E48093FD049093FE04A093FF04B093AC
:101CF000000510920B0510920C0510920E05109223
:101D00000F0510920D0510921005109211051092FA
:101D100012051092040510920305109314051092F9
:101D200013051092F5041092F6041092F704109225
:101D3000F80410920805109207051092F904109209
:101D4000FA041092FB041092FC0410920A051092FF
:101D500009050E94970C33243394EFE12E2E64E69C
:101D600070E080E090E00E940109809114058823D2
:101D700009F4E6C00E94DA028DEF0E940C026C01A9
:101D800080918C0390918D03A0918E03B0918F036D
:101D90002C013D015CE2551A51E0650A7108E12C05
:101DA000F12C3EE0CC0CDD1CEE1CFF1C3A95D1F76B
:101DB0004091870350918803052E000C660B770B2A
:101DC000E4E1440F551F661F771FEA95D1F7C41A47
:101DD000D50AE60AF70AA0918903B0918A03A30104
:101DE00092010E94451CC61AD70AE80AF90A80E443
:101DF000D80EE11CF11CFFE0F594E794D794C7944A
:101E0000FA95D1F7A0918603B0E00E943A1C4B01ED
:101E10005C01ABE0B594A79497948794AA95D1F709
:101E200090E8990EA11CB11CA0918B030A2E000C06
:101E3000BB0B0E94451CBAE09595879577956795F1
:101E4000BA95D1F7A50194010E94B51CDC01CB0124
:101E50001AE0B595A795979587951A95D1F79C01A6
:101E6000AD01405E5F4FA0918403B09185030E9455
:101E7000451CDC01CB01905EAF4FBF4FBC01CD01D3
:101E80000EE095958795779567950A95D1F7A70107
:101E900096010E94B51C6B017C012FE095958795FA
:101EA000779567952A95D1F79B01AC010E94B51CE7
:101EB0009B01AC0167E055954795379527956A9545
:101EC000D1F7A0918303B0E00E943A1CDC01CB0162
:101ED00074E0B595A795979587957A95D1F7970171
:101EE0008601081B190B2A0B3B0BD901C80137FFD0
:101EF00003C080E090E0DC0181309105A10519E18B
:101F0000B10724F080E090E0A0E0B9E1BC01CD0190
:101F10002CE095958795779567952A95D1F70E943E
:101F2000F91A20E030E040E85AE30E945A1B0E9470
:101F3000AA1D0E94F91A4B015C010E94DA0217C126
:101F400080911305882309F47FC00E9480022091AC
:101F5000020330910303872E982EA92EBB24A7FCE1
:101F6000BA94821A930AA108B108DC01CB0157E0A8
:101F7000B595A795979587955A95D1F7220F331F59
:101F80007C018D01E21AF30A01091109A8019701E8
:101F9000A0910403B09105030E94451C6B017C01D4
:101FA0007BE0F594E794D794C7947A95D1F7A5018F
:101FB0009401C501B4010E94B51C9B01AC01ECE089
:101FC0005595479537952795EA95D1F7A091060342
:101FD000B09107030E94451CDC01CB01FEE0B595E2
:101FE000A79597958795FA95D1F7A7019601280FA0
:101FF000391F4A1F5B1F20931A0330931B03409322
:102000001C0350931D03A5E0B0E00E943A1CDC01C4
:10201000CB0180589F4FAF4FBF4F692F7A2F8B2F27
:10202000992787FD9A950E94FB1A20E030E048EC42
:1020300052E40E94381D6B017C01812C912C00E838
:10204000A02E0FEBB02EC3C00E9459038823D1F1FC
:102050008091AB048B30B0F18D30A8F08551823087
:1020600088F56091A5047091A604762767277627E6
:1020700080E090E00E94F91A2DEC3CEC4CEC5DE322
:102080000E945A1B1CC06091A60470E080E090E0A2
:102090000E94FB1A2DEC3CEC4CEC5DE30E945A1BB9
:1020A0006B017C016091A50470E080E090E00E94EB
:1020B000FB1A9B01AC01C701B6010E94CC1C4B016D
:1020C0005C0106C0812C912C20ECA22E2FE7B22EB1
:1020D0000E945903882309F474C08091AB048C30AA
:1020E00009F448C018F48B30D1F06BC085518230B0
:1020F00008F067C01091A704612F6F7770E0762F0A
:1021000066278091A804682B80E090E00E94F91A6D
:102110002DEC3CEC4CEC5DE30E945A1B49C06091F5
:10212000A70470E080E090E00E94F91A6B017C0146
:102130001091A80417FF0AC09B01AC0160E070E099
:1021400080E89FEB0E94CB1C6B017C01612F6F70BC
:1021500070E080E090E00E94FB1A2DEC3CEC4CEC2F
:102160005DE30E945A1BA70196010E94CC1C6B01E3
:102170007C012DC01091A7046091A8046F7070E0DD
:1021800080E090E00E94FB1A2DEC3CEC4CEC5DE30F
:102190000E945A1B6B017C01612F70E080E090E08F
:1021A0000E94F91A9B01AC01C701B6010E94CC1C28
:1021B0006B017C0117FF0BC0F7FAF094F7F8F0946D
:1021C00006C0C12CD12C80ECE82E8FE7F82E8EE0D3
:1021D0000E94EA088034914054F08EE00E94EA08A0
:1021E000853492403CF48EE00E94EA0805C080E409
:1021F00091E002C084E492E0092E000CAA0BBB0B14
:102200009C01AD012054314041095109ACE9BFEFB7
:102210000E94481C24E031E040E050E00E941B1C7A
:10222000DA01C9018C599F4FAF4FBF4F88A799A7BB
:10223000AAA7BBA78FE00E94EA088034914054F01F
:102240008FE00E94EA08853492403CF48FE00E94BF
:10225000EA0805C080E491E002C084E492E0092E1F
:10226000000CAA0BBB0B9C01AD012054314041096D
:102270005109ACE9BFEF0E94481C24E031E040E086
:1022800050E00E941B1CDA01C9018C599F4FAF4FCF
:10229000BF4F8CA79DA7AEA7BFA7A5019401C501FD
:1022A000B4010E94DE1D81110CC08092DD04909269
:1022B000DE04A092DF04B092E004109204051092B4
:1022C0000305A7019601C701B6010E94DE1D811119
:1022D0005EC3C092E104D092E204E092E304F09283
:1022E000E4041092040510920305A8A5B9A5BD0148
:1022F000BB0F880B990B0E94FB1A9B01AC010E943B
:10230000DE1D8111BDC08091220381110CC00E948D
:102310003B0960931E0370931F03809320039093E7
:102320002103309222030E943B0900911E03109169
:102330001F032091200330912103DC01CB01801B7E
:10234000910BA20BB30B893E9340A105B10508F494
:1023500091C068A579A5CE0182960E94C1046AE267
:1023600071E0CE0101960E94140BBE016E5D7F4F9D
:10237000CE0101960E948E040E948204CE01019635
:102380000E945E04CE0182960E945E046CA57DA52B
:10239000CE0182960E94C10465E371E0CE010196F0
:1023A0000E94140BBE016E5D7F4FCE0101960E940C
:1023B0008E040E948204CE0101960E945E04CE012A
:1023C00082960E945E041BA21AA21DA21CA21FA23A
:1023D0001EA28E010F5F1F4F22E044E0C701B6012D
:1023E0000E94A816BC01CE0182960E94FD0A62E4FA
:1023F00071E0C8010E94140BBE016E5D7F4FC801E1
:102400000E948E040E948204C8010E945E04CE01D4
:1024100082960E945E041BA21AA21DA21CA21FA2E9
:102420001EA222E044E0C501B4010E94A816BC012E
:10243000CE0182960E94FD0A69E471E0C8010E9403
:10244000140BBE016E5D7F4FC8010E948E040E9476
:102450008204C8010E945E04CE0182960E945E043E
:102460000E943B0960931E0370931F038093200317
:102470009093210328A539A53093080520930705DB
:102480004CA55DA5BA01550F880B990B0E94FB1A4C
:102490009B01AC010E94DE1D811106C08CA59DA58B
:1024A00090930A058093090510910B051123B9F04B
:1024B0002091F1043091F2044091F3045091F4041E
:1024C0006091E1047091E2048091E3049091E4044E
:1024D0000E94D91D18161CF430920C0518C001E09A
:1024E0002091ED043091EE044091EF045091F004FE
:1024F0006091E1047091E2048091E3049091E4041E
:102500000E94D91D18160CF000E000930C05909164
:10251000120580910C05992319F0181709F43FC092
:102520008823F9F061E084E00E94610861E085E0C1
:102530000E94610861E087E00E94610861E081E13A
:102540000E94AE0860E081E10E94610861E082E1E2
:102550000E94AE0860E082E10E94610830920B05A3
:102560001EC084E090E00E94A30C85E090E00E94F1
:10257000A30C87E090E00E94A30C61E081E10E943F
:10258000AE0861E081E10E94610861E082E10E94A1
:10259000AE0861E082E10E94610810920B05909103
:1025A000120580911105992321F09091100589174A
:1025B00079F0882339F061E083E00E94610830926D
:1025C000100506C083E090E00E94A30C1092100555
:1025D000C0904603D0904703E0904803F090490331
:1025E000C114D104E104F10409F4DBC10E943B09E8
:1025F000DC01CB018C199D09AE09BF0989389341D3
:10260000A105B10508F457C28BE192E00E94F904DC
:1026100088E090E00E94A30C1092460310924703BA
:10262000109248031092490329E23CE54FE05EE333
:102630006091F5047091F6048091F7049091F8048C
:102640000E94CC1C6093F5047093F6048093F70409
:102650009093F8040E943B096093420370934303F4
:102660008093440390934503C0906603D090670322
:10267000E0906803F0906903C114D104E104F1040F
:1026800009F44EC20E943B09DC01CB018C199D0963
:10269000AE09BF0989389341A105B10508F4CAC242
:1026A00081E392E00E94F90489E090E00E94A30C8B
:1026B00010926603109267031092680310926903E8
:1026C00029E23CE54FE05EE36091F9047091FA0481
:1026D0008091FB049091FC040E94CC1C6093F9044F
:1026E0007093FA048093FB049093FC040E943B09CE
:1026F0006093620370936303809364039093650314
:102700003092120588E094E00E94F009181619062C
:1027100064F488E094E00E94F009181619062CF47D
:1027200080910D05882309F40CC180910D05882343
:1027300009F404C16DE472E0CE0182960E94140B8C
:1027400064E871E08DEB94E00E94EA16BC01CE01D2
:1027500001960E94140B8AA19BA1009779F06981D0
:102760007A816115710541F04CA15DA12D813E81F9
:102770004217530708F004C10E947B1E89819A8189
:102780009BA38AA38B819C819DA38CA38D819E8119
:102790009FA38EA31A8219821C821B821E821D8215
:1027A000CE0101960E945E0486E891E00E944605F3
:1027B000CE0182960E94790486EB91E00E94460544
:1027C0000E94750488E094E00E94750A6FE871E049
:1027D000CE0182960E941407882349F18091030557
:1027E00090910405459774F085E991E00E944605B3
:1027F0000E94750488E094E00E94750A1092040516
:102800001092030580910505909106054597BCF14E
:1028100089EB91E00E9446050E94750488E094E0EF
:102820000E94750A109204051092030528C065EDF8
:1028300071E0CE0182960E941407882319F16DED94
:1028400071E080E090E00E94EA160E94C816609352
:10285000ED047093EE048093EF049093F00420E075
:1028600030E040E85FE30E94CB1C6093F10470937A
:10287000F2048093F3049093F404109212050E94E2
:102880004A0654C06FED71E0CE0182960E94140793
:10289000882349F06DED71E080E090E00E94EA1637
:1028A0000E94C816E2CF67EE71E0CE0182960E94C8
:1028B0001407882389F06DED71E080E090E00E94BC
:1028C000EA160E94C8166093FD047093FE0480937C
:1028D000FF0490930005D1CF64EF71E0CE018296A2
:1028E0000E941407882381F06DED71E080E090E094
:1028F0000E94EA160E94CC1621E0181619060CF068
:1029000020E020931105B9CF8AEF91E00E9446059F
:10291000CE0182960E94790487E192E00E944605EA
:102920000E94750488E094E00E94750A0E94970C4A
:1029300010920D05CE0182960E945E040E94970AB5
:102940000ECA88E094E00E94CE09E0916A038A30C2
:1029500071F0AE2FB0E0A354BB4F8C93EF5FE03229
:1029600018F4E0936A03D5CE20926A03D2CEF0E049
:10297000E354FB4F108210926A0330920D05C9CECA
:102980000E94E11F8D819E819FA38EA307CF80911E
:102990000305909104050196909304058093030527
:1029A000A4CC80910705909108050A970CF043C0CC
:1029B0000E943B090091420310914303209144037C
:1029C00030914503DC01CB01801B910BA20BB30BB3
:1029D00081329E44A105B10570F1609107057091A7
:1029E0000805CE0182960E94C10465E272E0CE0124
:1029F00001960E94140BBE016E5D7F4FCE010196C1
:102A00000E948E040E948204CE0101960E945E0400
:102A1000CE0182960E945E0461E088E00E94610817
:102A20000E943B09609346037093470380934803D9
:102A30009093490319CE80912E0381110CC00E94FE
:102A40003B0960932A0370932B0380932C0390938C
:102A50002D0330922E030E943B0900912A0310910E
:102A60002B0320912C0330912D03DC01CB01801B23
:102A7000910BA20BB30B813D9740A105B10570F0FE
:102A800081E691E00E94F9040E943B0960932A03C9
:102A900070932B0380932C0390932D0388E090E098
:102AA0000E94A30C10924603109247031092480311
:102AB00010924903D9CD80913A0381110CC00E9434
:102AC0003B096093360370933703809338039093E8
:102AD000390330923A030E943B090091360310916A
:102AE00037032091380330913903DC01CB01801B7F
:102AF000910BA20BB30B853F9140A105B10508F4E2
:102B0000B3CD84E591E00E94F9040E943B096093F3
:102B10003603709337038093380390933903A4CD21
:102B20008091090590910A050A97B4F40E943B0927
:102B30000091620310916303209164033091650357
:102B4000DC01CB01801B910BA20BB30B81329E44A5
:102B5000A105B10508F040C080914E0381110CC061
:102B60000E943B0960934A0370934B0380934C038C
:102B700090934D0330924E030E943B0900914A030B
:102B800010914B0320914C0330914D03DC01CB019C
:102B9000801B910BA20BB30B813D9740A105B105A2
:102BA00070F089E791E00E94F9040E943B0960936C
:102BB0004A0370934B0380934C0390934D0389E039
:102BC00090E00E94A30C109266031092670310928B
:102BD00068031092690394CD6091090570910A050C
:102BE000CE0182960E94C1046DE372E0CE0101968F
:102BF0000E94140BBE016E5D7F4FCE0101960E94B4
:102C00008E040E948204CE0101960E945E04CE01D1
:102C100082960E945E0461E089E00E9461080E9441
:102C20003B096093660370936703809368039093F6
:102C3000690366CD80915A0381110CC00E943B0943
:102C400060935603709357038093580390935903EE
:102C500030925A030E943B0900915603109157038A
:102C60002091580330915903DC01CB01801B910B5B
:102C7000A20BB30B853F9140A105B10508F440CDEF
:102C80008AE691E00E94F9040E943B096093560392
:102C900070935703809358039093590331CDECEF11
:102CA000F3E01382128288EE93E0A0E0B0E0848328
:102CB0009583A683B7832AE031E031832083E8E05F
:102CC000F4E01382128284839583A683B7838CE118
:102CD00091E09183808385EC90E09587848784ECF4
:102CE00090E09787868780EC90E0918B808B81ECD9
:102CF00090E0938B828B82EC90E0958B848B86ECBA
:102D000090E0978B868B118E128E138E148EA5EA0F
:102D1000B4E080E115968C93159786E116968C9316
:102D20001697EBECF1E0E4911796EC931797E7EB2D
:102D3000F1E0E4911896EC93189740E85EE360E0C8
:102D400070E01D964D935D936D937C93509708951D
:102D5000EF920F931F93CF93DF93E80147FD02C0DB
:102D600034E001C034E1042E000C550B57FF03C0C2
:102D7000519541955109E32E022F242FAE010E9457
:102D80004317CE01DF91CF911F910F91EF900895DE
:102D9000662777270C949D18FC0188279927E894CB
:102DA00021912032E9F3293010F02E30C8F32B3274
:102DB00041F02D3239F4689404C00E942117820F2B
:102DC000911D219120532A30C0F31EF490958195D6
:102DD0009F4F089541E655E00E94EF160895FA01CD
:102DE000A191B081009719F41097E1F0CD01DC01B9
:102DF000CD010D90002011F4C00113C0FB01219101
:102E0000222319F02015D9F7F3CFFB0121912015CA
:102E100019F41E92119606C02223C1F70D900020CE
:102E2000A1F7D001FA01A193B0830895BB274A30DE
:102E300031F4992322F4BDE2909581959F4F0C9433
:102E40002A177AE0979F902D879F802D910D11244E
:102E50000895BB27FB015527AA27880F991FAA1F92
:102E6000A41710F0A41B83955051B9F7A05DAA33A5
:102E700008F0A95DA193009779F7B111B193119270
:102E8000CB010C94E41AA9E0B0E0E9E4F7E10C947A
:102E9000531C6A01122FB02E2BE3201720F0FF24C1
:102EA000F394F00E02C02CE3F22E0F2D27E0AE01BA
:102EB0004F5F5F4F0E94EB19BC014981842F8970DD
:102EC000813031F0E1FC06C0E0FE06C090E205C0B2
:102ED0009DE203C09BE201C090E05E2D507143FF74
:102EE0003CC0911102C083E001C084E0811718F456
:102EF000212F281B01C020E051110BC0F601822FA9
:102F000030E2882319F031938150FBCFC20ED11CDF
:102F100020E0992329F0D6019C93F60131966F01A8
:102F2000C6010396E2FE0AC03EE4D6013C9341E4AA
:102F300011964C93119712963C9306C03EE6F6010B
:102F4000308341E641833283FC01322F40E2332358
:102F500009F442C041933150FACF42FF44C091116D
:102F600002C083E001C084E0811718F4212F281BE0
:102F700001C020E051110BC0F601822F30E28823FE
:102F800019F031938150FBCFC20ED11C20E0992360
:102F900029F0D6019C93F60131966F01C601039684
:102FA000E2FE0BC039E4D6013C933EE411963C931B
:102FB000119736E412963C9307C039E6F601308348
:102FC0003EE6318336E63283FC01322F40E2332382
:102FD00019F041933150FBCFFC01E20FF11D10823B
:102FE0008EEF9FEFA6C021E030E0911102C020E0FB
:102FF00030E0161617061CF4FB01319602C0E1E022
:10300000F0E02E0F3F1FBB2021F0EB2DF0E03196BA
:1030100002C0E0E0F0E02E0F3F1FE12FF0E02E179E
:103020003F071CF4121B212F01C020E08E2D887158
:1030300059F4F601822F30E2882319F03193815040
:10304000FBCFC20ED11C20E0992329F0D6019C931E
:10305000F60131966F0151110BC0F601822F90E3FA
:10306000882319F091938150FBCFC20ED11C20E030
:103070000F2D060F9A81342F307144FF03C0913316
:1030800009F40150101624F4093018F008E001C0CA
:1030900001E0AB0177FF02C040E050E0FB01E41B20
:1030A000F50BA1E0B0E0AC0FBD1FEA0FFB1F8EE2F5
:1030B000A82E4B01801A91080B2D10E01195019557
:1030C00011094F3FBFEF5B0721F4D601AC92119677
:1030D0006D01641775072CF08416950614F4818130
:1030E00001C080E3415051093196D60111967D010E
:1030F0004017510724F0D6018C936701E2CF641783
:10310000750739F4963320F4953319F4311101C061
:1031100081E3F6018083F701822F90E2882319F082
:1031200091938150FBCFF701E20FF11D108280E0F7
:1031300090E02996ECE00C946F1CA0E0B0E0E3EA8C
:10314000F8E10C94531CEC016B016115710519F049
:10315000FB01918380837E01FFEFEF1AFF0A088154
:10316000802F90E00E94C31A892B11F0E701F3CF62
:103170000D3239F47E0182E0E80EF11C098111E084
:1031800008C00B3229F47E0192E0E90EF11C09819E
:1031900010E0E701219743E050E060E770E0CE01E6
:1031A0000E94CC1A892BC1F4239645E050E06BE6CF
:1031B00070E0CE010E94CC1A892B09F42596C11427
:1031C000D10419F0F601D183C0831111F6C060E07B
:1031D00070E080E89FE7FAC043E050E068E670E006
:1031E000CE010E94CC1A892B59F4C114D10409F4E0
:1031F000E9C0F2E0EF0EF11CF601F182E082E2C0DC
:1032000020E030E0A901C0E0D0E0F70180EDA82E79
:10321000A00E89E08A1530F1912F9260B92E812F8E
:10322000887012FF04C0811124C0219622C0811130
:103230002197A5E0B0E00E943A1CDC01CB01880F89
:10324000991FAA1FBB1F9C01AD012A0D311D411DF5
:10325000511D283989E93807480789E1580748F09E
:10326000166006C09EEFA9120AC013FD40C0186088
:10327000B12E8FEFE81AF80A00811B2DC6CF802FE0
:103280008F7D8534A1F580818D3211F4106106C0E7
:103290008B3221F0319661E070E004C0818132967A
:1032A00062E070E080538A3018F0E61BF70B1FC015
:1032B00060E070E060389CE079075CF4DB01AA0F05
:1032C000BB1FAA0FBB1F6A0F7B1F660F771F680FFC
:1032D000711D3196DF0111978C9180538A3050F324
:1032E00014FF03C0719561957109C60FD71F11FFB7
:1032F00008C0C114D10429F0CF010197F6019183D0
:103300008083CA01B9010E94F91A212F237023304A
:1033100019F04B015C0106C04B015C01B7FAB09497
:10332000B7F8B09420E030E0A901C501B4010E94D3
:10333000F41A882309F43EC0D7FF06C0D195C19581
:10334000D10907E810E002C00FE910E06801F8E1D8
:10335000CF1AD10890E2E92EF12CCE15DF0574F0DA
:10336000F8012591359145915491C501B4010E9410
:103370005A1B4B015C01CE19DF09EFCF0450110934
:10338000F594E7940C151D0541F78A2D880F8B2DB8
:10339000881F8F3F49F020E030E0A901C501B4014A
:1033A0000E94F41A811106C082E290E090936405B5
:1033B00080936305C501B40109C060E070E080E856
:1033C0009FEF04C060E070E080EC9FE7CDB7DEB710
:1033D000ECE00C946F1C283008F027E03327DA016A
:1033E000990F311D87FD916000966105710539F4D3
:1033F00032602E5F3D9330E32A95E1F708959F3FB9
:1034000030F080387105610509F03C5F3C5F3D9309
:10341000913008F08068911DDF93CF931F930F9335
:10342000FF92EF92192F987F9695E92F9695969592
:10343000E90FFF27E350FF4F99273327EE24FF249E
:10344000A701E70105900894079428F4360FE71EBA
:10345000F81E491F511D660F771F881F991F06947C
:10346000A1F70590079428F4E70EF81E491F561F90
:10347000C11D770F881F991F661F0694A1F705903D
:10348000079428F4F80E491F561FC71FD11D880F37
:10349000991F661F771F0694A1F70590079420F4E3
:1034A000490F561FC71FD81F990F661F771F881F08
:1034B0000694A9F784911095177041F0D695C79599
:1034C00057954795F794E7941A95C1F7E3EAF0E02A
:1034D00068941590159135916591959105907FE2CD
:1034E0007395E118F10A430B560BC90BD009C0F7CD
:1034F000E10CF11E431F561FC91FD01D7EF470330F
:1035000011F48A95E6CFE894015030F0080F0AF4E0
:103510000027021708F4202F2395022F7A3328F072
:1035200079E37D932A95E9F710C07D932A9589F672
:10353000069497956795379517951794E118F10AB2
:10354000430B560BC90BD00998F023957E917395C8
:103550007A3308F070E37C932013B8F77E917061A2
:103560007D9330F0839571E37D9370E32A95E1F7C5
:103570001124EF90FF900F911F91CF91DF91992728
:1035800087FD9095089591110C94C71B803219F016
:1035900089508550C8F70895FB01DC014150504027
:1035A00088F08D9181341CF08B350CF4805E659130
:1035B00061341CF06B350CF4605E861B611171F395
:1035C000990B0895881BFCCFDC01FC01672F7191DA
:1035D0007723E1F7329704C07C916D9370836291F9
:1035E000AE17BF07C8F308950E94361B08F481E0A8
:1035F0000895E89409C097FB3EF4909580957095E6
:1036000061957F4F8F4F9F4F9923A9F0F92F96E92E
:10361000BB279395F695879577956795B795F111A3
:10362000F8CFFAF4BB0F11F460FF1BC06F5F7F4F40
:103630008F4F9F4F16C0882311F096E911C0772352
:1036400021F09EE8872F762F05C0662371F096E85B
:10365000862F70E060E02AF09A95660F771F881F2A
:10366000DAF7880F9695879597F90895990F0008CE
:10367000550FAA0BE0E8FEEF16161706E807F90744
:10368000C0F012161306E407F50798F0621B730BDF
:10369000840B950B39F40A2661F0232B242B252B60
:1036A00021F408950A2609F4A140A6958FEF811D03
:1036B000811D08950E946D1B0C94E11B0E94D31B79
:1036C00038F00E94DA1B20F0952311F00C94CA1BED
:1036D0000C94D01B11240C94151C0E94F21B70F347
:1036E000959FC1F3950F50E0551F629FF001729FA7
:1036F000BB27F00DB11D639FAA27F00DB11DAA1FB6
:10370000649F6627B00DA11D661F829F2227B00D02
:10371000A11D621F739FB00DA11D621F839FA00D8D
:10372000611D221F749F3327A00D611D231F849FDD
:10373000600D211D822F762F6A2F11249F57504034
:103740009AF0F1F088234AF0EE0FFF1FBB1F661FAF
:10375000771F881F91505040A9F79E3F510580F078
:103760000C94CA1B0C94151C5F3FE4F3983ED4F3F1
:10377000869577956795B795F795E7959F5FC1F71C
:10378000FE2B880F911D9695879597F90895992797
:103790008827089597F99F6780E870E060E00895B2
:1037A0009FEF80EC089500240A9416161706180659
:1037B0000906089500240A94121613061406050635
:1037C0000895092E0394000C11F4882352F0BB0FC6
:1037D00040F4BF2B11F460FF04C06F5F7F4F8F4F29
:1037E0009F4F089557FD9058440F551F59F05F3F64
:1037F00071F04795880F97FB991F61F09F3F79F013
:1038000087950895121613061406551FF2CF469594
:10381000F1DF08C0161617061806991FF1CF869516
:103820007105610508940895E894BB2766277727FA
:10383000CB0197F90895052E97FB1EF400940E9482
:10384000321C57FD07D00E94841C07FC03D04EF4A5
:103850000C94321C50954095309521953F4F4F4F19
:103860005F4F089590958095709561957F4F8F4F2C
:103870009F4F08950E94A61CA59F900DB49F900D88
:10388000A49F800D911D11240895B7FF0C943A1C3C
:103890000E943A1C821B930B08952F923F924F92E5
:1038A0005F926F927F928F929F92AF92BF92CF92D0
:1038B000DF92EF92FF920F931F93CF93DF93CDB7D9
:1038C000DEB7CA1BDB0B0FB6F894DEBF0FBECDBF51
:1038D00009942A88398848885F846E847D848C8422
:1038E0009B84AA84B984C884DF80EE80FD800C812B
:1038F0001B81AA81B981CE0FD11D0FB6F894DEBF0E
:103900000FBECDBFED010895A1E21A2EAA1BBB1B6D
:10391000FD010DC0AA1FBB1FEE1FFF1FA217B3079B
:10392000E407F50720F0A21BB30BE40BF50B661FB1
:10393000771F881F991F1A9469F760957095809575
:1039400090959B01AC01BD01CF010895A29FB001EC
:10395000B39FC001A39F700D811D1124911DB29FC3
:10396000700D811D1124911D0895DB018F939F938C
:103970000E943A1CBF91AF91A29F800D911DA39F01
:10398000900DB29F900D11240895EE0FFF1F05902A
:10399000F491E02D09945058BB27AA270E94E31CFC
:1039A0000C94E11B0E94D31B38F00E94DA1B20F01C
:1039B00039F49F3F19F426F40C94D01B0EF4E095D3
:1039C000E7FB0C94CA1BE92F0E94F21B58F3BA17AD
:1039D000620773078407950720F079F4A6F50C9425
:1039E000141C0EF4E0950B2EBA2FA02D0B01B9017B
:1039F00090010C01CA01A0011124FF27591B99F065
:103A0000593F50F4503E68F11A16F040A22F232F70
:103A1000342F4427585FF3CF469537952795A795C0
:103A2000F0405395C9F77EF41F16BA0B620B730B67
:103A3000840BBAF09150A1F0FF0FBB1F661F771FD8
:103A4000881FC2F70EC0BA0F621F731F841F48F48D
:103A5000879577956795B795F7959E3F08F0B0CF16
:103A60009395880F08F09927EE0F979587950895FD
:103A70000E944C1D0C94E11B0E94DA1B58F00E941E
:103A8000D31B40F029F45F3F29F00C94CA1B51115D
:103A90000C94151C0C94D01B0E94F21B68F3992304
:103AA000B1F3552391F3951B550BBB27AA2762173A
:103AB0007307840738F09F5F5F4F220F331F441F47
:103AC000AA1FA9F335D00E2E3AF0E0E832D091507B
:103AD0005040E695001CCAF72BD0FE2F29D0660F68
:103AE000771F881FBB1F261737074807AB07B0E8AB
:103AF00009F0BB0B802DBF01FF2793585F4F3AF0B1
:103B00009E3F510578F00C94CA1B0C94151C5F3F26
:103B1000E4F3983ED4F3869577956795B795F79536
:103B20009F5FC9F7880F911D9695879597F908951E
:103B3000E1E0660F771F881FBB1F621773078407BA
:103B4000BA0720F0621B730B840BBA0BEE1F88F7C9
:103B5000E09508950E94FA1B88F09F5798F0B92FBE
:103B60009927B751B0F0E1F0660F771F881F991FB2
:103B70001AF0BA95C9F714C0B13091F00E94141C24
:103B8000B1E008950C94141C672F782F8827B85F34
:103B900039F0B93FCCF3869577956795B395D9F70A
:103BA0003EF490958095709561957F4F8F4F9F4F14
:103BB00008950E94361B08F48FEF08950E94361B6B
:103BC000880B990B08950F931F93CF93DF93823047
:103BD000910510F482E090E0E0916705F0916805AE
:103BE00020E030E0A0E0B0E0309719F14081518151
:103BF0000281138148175907C8F08417950769F4A3
:103C0000109731F012960C93129713961C9327C0BD
:103C1000009367051093680522C02115310519F03E
:103C20004217530718F49A01BD01EF01DF01F801B3
:103C3000DBCF21153105F9F0281B390B2430310574
:103C400080F48A819B816115710521F0FB019383CA
:103C5000828304C09093680580936705FE013296C5
:103C600044C0FE01E20FF31F81939193225031096A
:103C7000398328833AC02091650530916605232B4E
:103C800041F42091020130910301309366052093A5
:103C9000650520910001309101012115310541F4A4
:103CA0002DB73EB74091040150910501241B350BFF
:103CB000E0916505F0916605E217F307A0F42E1B6D
:103CC0003F0B2817390778F0AC014E5F5F4F241780
:103CD000350748F04E0F5F1F50936605409365050A
:103CE0008193919302C0E0E0F0E0CF01DF91CF91AA
:103CF0001F910F910895CF93DF93009709F481C02E
:103D0000FC01329713821282A0916705B091680579
:103D1000109781F420813181820F931F20916505D6
:103D2000309166052817390751F5F0936605E09341
:103D3000650567C0ED0120E030E0CE17DF0740F4F5
:103D40004A815B819E0141155105F1F0EA01F5CFF1
:103D5000D383C28340815181840F951FC817D9072F
:103D600059F488819981840F951F029691838083ED
:103D70008A819B81938382832115310529F4F093F5
:103D80006805E09367053DC0E901FB83EA8349913B
:103D90005991C40FD51FEC17FD0761F48081918103
:103DA000840F951F0296E90199838883828193810C
:103DB0009B838A83E0E0F0E012968D919C911397AB
:103DC000009719F0FD01DC01F7CF8D919C911197BF
:103DD0009D012E5F3F4F820F931F2091650530910B
:103DE00066052817390769F4309729F41092680599
:103DF0001092670502C013821282B0936605A093E9
:103E00006505DF91CF910895A0E0B0E0EAE0FFE121
:103E10000C94511CEC01009721F4CB010E94E31D8E
:103E2000B4C0FC01E60FF71F9C0122503109E217D4
:103E3000F30708F4A8C0D9010D911C91119706173A
:103E40001707B0F00530110508F49BC0C8010497AE
:103E50008617970708F495C002501109061B170B27
:103E6000019311936D937C93CF010E947B1E89C0B7
:103E70005B01A01AB10A4C01800E911EA09167054A
:103E8000B0916805612C712CE12CF12C109709F48C
:103E900046C08D919C911197A815B905B1F56C019B
:103EA00042E0C40ED11CCA14DB0478F14C018A181C
:103EB0009B08640142E0C40ED11C1296BC9012977C
:103EC0001396AC91B5E0CB16D10440F0B282A38337
:103ED00091828082D9016D937C9309C00E5F1F4F40
:103EE000800F911FF90191838083EB2DFA2FE1144C
:103EF000F10431F0D7011396FC93EE93129741C071
:103F0000F0936805E09367053CC06816790608F4ED
:103F10003C017D0112960D90BC91A02DB7CF8091F0
:103F200065059091660588169906E1F46616770690
:103F3000C8F48091000190910101009741F48DB780
:103F40009EB74091040150910501841B950BE81721
:103F5000F907C8F4F0936605E0936505F9017183EC
:103F600060830FC0CB010E94E31D7C01009759F0D4
:103F7000A801BE010E94CF1FCE010E947B1EC70177
:103F800004C0CE0102C080E090E0CDB7DEB7EEE025
:103F90000C946D1C81E090E0F8940C94E81FFB01F8
:103FA000DC0102C001900D9241505040D8F70895B5
:103FB000FB01DC018D91019080190110D9F3990B5F
:103FC0000895FB01DC0101900D920020E1F70895B6
:043FD000F894FFCF93
:103FD40000006905200000000000D505A805BC0903
:103FE4007C05A0058C057D0500000000280A9209C7
:103FF400BF09750AF009CE09E2094D6F697374753A
:1040040072653A20004D6F69737475726520323A97
:10401400200054656D703A200048756D69646974B8
:10402400793A200050756D702052756E6E696E6716
:104034000050756D70204F66660050756D702032AB
:104044002052756E6E696E670050756D7020322057
:104054004F6666003D007B22434D44223A220050C5
:1040640052494E54007B224552524F52223A20224A
:104074002054656D7065726174757265206E6F741D
:10408400207265616420227D007B224552524F528A
:10409400223A2022204C7578206E6F74207265615C
:1040A4006420227D006D61785F746D70002C006D5A
:1040B400696E5F746D70006D61785F68756D6964B9
:1040C400697479006C69676874007B224552524FA9
:1040D40052223A2022556E6B6E6F776E20636F6D9D
:1040E4006D616E6420270027227D0053544F5020B9
:1040F40050554D500053544152542050554D50206A
:104104000053544F502050554D50203200535441C9
:1041140052542050554D50203220000D0A007B226D
:10412400737461747573223A7B0074656D70657283
:1041340061747572650070656C746965725F636F34
:104144006F6C5F7374617475730068756D6964690D
:1041540074795F66616E5F737461747573007761FF
:104164007465725F766F6C756D65007761746572E6
:104174005F766F6C756D655F320076697369626C2A
:10418400655F6C757800736F696C5F6D6F697374CC
:1041940075726500736F696C5F6D6F6973747572A6
:1041A400655F32006D69737365645F74656D705F1C
:1041B400726561647300626D6532383000626D70DF
:1041C400323830007D7D00223A00696E66006F76D9
:0241D400660083
:00000001FF
