:100000000C9480000C94A8000C94A8000C94A800F8
:100010000C94A8000C94A8000C94A8000C94A800C0
:100020000C94A8000C94A8000C94A8000C94A800B0
:100030000C94A8000C94A8000C94A8000C94A800A0
:100040000C9419080C94A8000C94E9090C94C309A9
:100050000C94A8000C94A8000C94A8000C94A80080
:100060000C941C060C94A8004E414E494E4954591C
:10007000494E46CDCCCC3D0AD7233C17B7D1387773
:10008000CC2B329595E6241FB14F0A000020410089
:1000900000C84200401C4620BCBE4CCA1B0E5AAED3
:1000A000C59D7400000000230026002900040404FC
:1000B0000404040404020202020202030303030311
:1000C00003010204081020408001020408102001EE
:1000D000020408102000000000240027002A00006D
:1000E000000000250028002B00000000080002018D
:1000F0000000030407000000000000000000CB1215
:1001000011241FBECFEFD8E0DEBFCDBF12E0A0E0CC
:10011000B1E0EEEBF3E302C005900D92AA35B10712
:10012000D9F724E0AAE5B2E001C01D92AB39B207CD
:10013000E1F710E0C0E8D0E004C02197FE010E9482
:10014000BA16CF37D107C9F70E94470B0C94DD19B7
:100150000C9400003091EA02313208F04BC08091DB
:1001600011038111FCCF9091F00322E02093110341
:1001700021E0209310032FEF20930F0310920E0322
:1001800030930D03EAECF2E0ABEEB2E020E0321780
:1001900021F041914D932F5FFACF10920C032091E3
:1001A0000C03990F922B90930C0390910B039130B9
:1001B00061F410920B0390910C039093BB0090910B
:1001C000BC0093FDF8CF95EC01C095EE9093BC0078
:1001D000909111039230E1F390910F039F3F79F0DA
:1001E00080910F03803241F080910F03803331F012
:1001F00084E005C081E003C082E001C083E010928A
:10020000C9021092EA021092C8020895CF92DF92BA
:10021000EF92FF92CF93DF93B091E403882311F024
:10022000AB2F01C0A0E08091E50390E0880F991FFB
:100230008D559F4FC090EA03D090EB03E090EC0304
:10024000F090ED0320E030E0FC01C591D491E8810D
:10025000EB23A90160E070E0EA130CC02F5F3F4F71
:100260004C155D056E057F0578F33FEF2FEF8FEF9F
:100270009FEF03C0322F252FCB01632F722FDF9109
:10028000CF91FF90EF90DF90CF9008959091110360
:100290009111FCCF982F813208F090E281E0809399
:1002A0001103809310032FEF20930F0310920E037E
:1002B000290F20930D0380930C0380910C038E6E05
:1002C00080930C0380910B03813061F410920B0337
:1002D00080910C038093BB008091BC0083FDF8CF1C
:1002E00085EC01C085EE8093BC00809111038130C4
:1002F000E1F380910E03891710F490910E03EBEE59
:10030000F2E0A4E1B3E080E0891721F021912D9380
:100310008F5FFACF109213038093120308951F93F7
:10032000CF93DF9391E09093C80297E79093F00307
:100330001092C9021092EA02682F84E393E00E94AF
:10034000FB040E94AA0082E090E00E944601809196
:10035000120390E020911303821B910982309105D2
:10036000ECF384E393E00E94B204182F84E393E05B
:100370000E94B204D12F20E0C22F9E01282BC90178
:10038000DF91CF911F9108950E948F0198278927AF
:100390009827089591E09093C80297E79093F0030F
:1003A0001092C9021092EA02682F84E393E00E943F
:1003B000FB040E94AA0081E090E00E944601909117
:1003C0001203809113039817F1F384E393E00E94E2
:1003D000B2040895CF93C62F91E09093C80297E797
:1003E0009093F0031092C9021092EA02682F84E3FE
:1003F00093E00E94FB046C2F84E393E00E94FB04D3
:10040000CF910C94AA008F929F92AF92BF92CF92FD
:10041000DF92EF92FF9281E08093C80287E780939A
:10042000F0031092C9021092EA026AEF84E393E0AB
:100430000E94FB040E94AA0083E090E00E94460113
:100440008091120390E020911303821B9109833065
:100450009105ECF384E393E00E94B2044C01990F00
:10046000AA08BB08BA2CA92C982C882484E393E012
:100470000E94B2046C01990FEE08FF08C828D92821
:10048000EA28FB28FE2CED2CDC2CCC2484E393E022
:100490000E94B204092E000CAA0BBB0BBC01CD01BB
:1004A0006C297D298E299F29FF90EF90DF90CF90B6
:1004B000BF90AF909F908F9008958F929F92AF9230
:1004C000BF92CF92DF92EF92FF920E940302E3EA83
:1004D000F2E020813181C72ED82EE92EFF24E7FCDF
:1004E000FA94C21AD30AE108F108DC01CB0157E003
:1004F000B595A795979587955A95D1F7220F331FF4
:100500004C015D01821A930AA108B108A50194016A
:10051000A281B3810E943A164B015C017BE0B59445
:10052000A794979487947A95D1F7A7019601C7016C
:10053000B6010E94AA169B01AC01ACE05595479507
:1005400037952795AA95D1F7A481B5810E943A16CF
:10055000DC01CB012EE0B595A795979587952A9557
:10056000D1F7A5019401280F391F4A1F5B1F21A352
:1005700032A343A354A3A5E0B0E00E942F16DC01F0
:10058000CB0180589F4FAF4FBF4F692F7A2F8B2FD2
:10059000992787FD9A950E94F01420E030E048ECFE
:1005A00052E40E942D17FF90EF90DF90CF90BF9004
:1005B000AF909F908F900895CF92DF92EF92FF922D
:1005C0000F931F93CF93DF93CDB7DEB7C054D140C5
:1005D0000FB6F894DEBF0FBECDBF0E940D0800918C
:1005E000E6031091E7032091E8033091E9036B01E2
:1005F0007C01C01AD10AE20AF30A40EDC41647E0B2
:10060000D406E104F10418F48091EE03CAC06093AB
:10061000E6037093E7038093E8039093E903109255
:10062000E1031092E0031092DF031092DE031092B8
:10063000DD0362E08091E2030E94970761E070E0D1
:1006400080E090E00E94D30761E08091E2030E9485
:10065000970760E08091E2030E944A078091E303DC
:100660008551823028F48BE291E10197F1F706C0C1
:1006700064E170E080E090E00E94D30762E0809146
:10068000E2030E9497078091EF0390E0823091058A
:1006900038F0880F991F880F991F05970197F1F778
:1006A000F89480E00E9406016F3F7F4F8F4F9F4F6D
:1006B00021F41092EE03789441C081E00E9406017B
:1006C0006F3F7F4F8F4F9F4FA1F38E010F5F1F4FE3
:1006D0006E012FEBC21A2EEFD20A780180E00E9441
:1006E0000601F701608371838283938381E00E9416
:1006F0000601F7016483758386839783F8E0EF0E24
:10070000F11CEC14FD0451F7789420E030E0F8017E
:10071000C080D180E280F3804481558166817781F9
:10072000FFEFCF16DF06EF06FF0631F04F3F8FEFEA
:1007300058076807780721F41092EE0380E031C073
:10074000F90183E0F595E7958A95E1F7E352FC4FCF
:100750008081880FC416D506E606F70608F4816086
:1007600080832F5F3F4F085F1F4F2832310579F696
:100770002091E10330E04091DD038091DE0390E0C1
:10078000840F911D4091DF03840F911D4091E00380
:10079000840F911D99272817390771F681E08093FE
:1007A000EE03C05CDE4F0FB6F894DEBF0FBECDBFC8
:1007B000DF91CF911F910F91FF90EF90DF90CF903D
:1007C000089580E480937C0080917A008064809317
:1007D0007A0080917A0086FDFCCF8091780020918C
:1007E000790090E0922B0895009769F0FC01019048
:1007F0000020E9F73197AF01481B590BBC0180E499
:1008000093E00C94640880E090E008958F929F92AA
:10081000AF92BF920F931F93CF93DF93CDB7DEB705
:10082000A1970FB6F894DEBF0FBECDBF19A242301C
:1008300008F44AE08E010F5D1F4F842E912CA12CED
:10084000B12CA50194010E947916E62FB901CA01C5
:1008500001501109EA3014F4E05D01C0E95CD801EF
:10086000EC93232B242B252B61F7C8010E94F40362
:10087000A1960FB6F894DEBF0FBECDBFDF91CF912A
:100880001F910F91BF90AF909F908F9008950C94FF
:10089000F403CF92DF92EF92FF92CF93DF936B013D
:1008A0007C016DE280E493E00E94FA08EC01662787
:1008B0007727CB016C197D098E099F094AE00E94B8
:1008C00006048C0F9D1FDF91CF91FF90EF90DF907A
:1008D000CF90089581EC91E00C94F40385ED809322
:1008E000BC008091BC0084FDFCCF109211030895E0
:1008F00040917004262F30E0240F311D2132310544
:10090000DCF4209111032430C9F4FC0180E090E074
:10091000861758F4309170042191DC01A05BBB4F25
:10092000A30FB11D2C930196F3CF80917004680F33
:100930006093700480E0089581E0089582E0089556
:10094000089508950895E091130380911203E81724
:1009500030F4F0E0EC5EFC4F808190E008958FEF82
:100960009FEF08959091130380911203981750F40C
:10097000E92FF0E0EC5EFC4F208130E09F5F909328
:10098000130302C02FEF3FEFC901089580911203B6
:1009900090E020911303821B91090895CF92DF927A
:1009A000EF92FF920F931F93CF93DF937C01CB01C4
:1009B0008A012091C802222389F0EB016B01C40E49
:1009C000D51ECC15DD0569F06991D701ED91FC913B
:1009D0000190F081E02DC7010995F3CF642F0E94AB
:1009E0007804C801DF91CF911F910F91FF90EF9094
:1009F000DF90CF900895CF93DF931F92CDB7DEB7EE
:100A000069832091C8022223D1F02091EA0220328A
:100A100040F021E030E0FC013383228380E090E06D
:100A200015C08091C902E82FF0E0E653FD4F99818F
:100A300090838F5F8093C9028093EA0205C061E0D2
:100A4000CE0101960E94780481E090E00F90DF9142
:100A5000CF9108953FB7F89480914C0490914D0444
:100A6000A0914E04B0914F0426B5A89B05C02F3F1E
:100A700019F00196A11DB11D3FBFBA2FA92F982FC4
:100A80008827820F911DA11DB11DBC01CD0142E03F
:100A9000660F771F881F991F4A95D1F70895CF9346
:100AA000DF9384EC91E00E944704C5EFD3E048A1B6
:100AB00059A16AA17BA181E991E00E946F0A83E8B4
:100AC00091E00E9447044CA15DA16EA17FA180ED41
:100AD00091E00E946F0A83E891E00E9447046091D0
:100AE0003D048CED91E00E941B0A83E891E00E9496
:100AF00047046091400480EF91E00E941B0A83E864
:100B000091E00E9447044CAD5DAD6EAD7FAD8DE8C8
:100B100091E00E946F0A83E891E00E94470448A98F
:100B200059A96AA97BA98BE791E00E946F0A83E823
:100B300091E00E94470448AD59AD6AAD7BAD84E0B9
:100B400092E00E946F0A83E891E00E9447044CA95A
:100B50005DA96EA97FA985E891E00E946F0A83E8EC
:100B600091E00E944704609142048AE991E00E946A
:100B70001B0A83E891E00E9447046091350470915C
:100B8000360481E192E00E94390A83E891E00E94F4
:100B9000470460913B0470913C048DE192E00E9417
:100BA000390A83E891E00E9447046091370470910C
:100BB00038048BE292E00E94390A83E891E00E94B7
:100BC0004704609146048DE392E00E941B0A83E88B
:100BD00091E00E9447046091450484E492E00E9401
:100BE0001B0A8BE492E00E9447040E946A0480E49E
:100BF00093E0DF91CF910C944709FC01248135816A
:100C0000232B31F421E061157105A1F0FB0108C02F
:100C1000FC01808191816115710531F421E0FC01B5
:100C20008081882339F005C00E94CD1921E0892BED
:100C300009F020E0822F08951F920F920FB60F92B5
:100C400011242F933F934F935F936F937F938F93D1
:100C50009F93AF93BF93EF93FF938091B900887FE9
:100C6000803609F49CC068F5883209F45BC090F4C2
:100C7000803109F454C038F4882309F4F6C0883070
:100C800009F44DC0F6C0883109F44CC0803209F433
:100C90005DC0EFC0803409F468C048F4803309F4C3
:100CA00055C0883309F0E5C080930F03D8C0803564
:100CB00009F44FC0883509F45DC0883409F0D9C003
:100CC000D6C0883909F4C7C0A8F4883709F467C0CA
:100CD00038F4883609F463C0803709F460C0C9C0AD
:100CE000883809F4B8C0803909F45FC0803809F049
:100CF000C0C05BC0803B09F486C038F4803A09F478
:100D000066C0883A09F47FC0B4C0803C09F4A7C02B
:100D1000883C09F4A4C0883B09F48AC0AAC0809129
:100D20000C0310C090910E0380910D03981770F57D
:100D3000E0910E0381E08E0F80930E03F0E0E55109
:100D4000FD4F80818093BB0085EC86C080930F03AC
:100D50008EC0E0910E0381E08E0F80930E03809190
:100D6000BB00F0E0E551FD4F808390910E03809130
:100D70000D036EC0E0910E0381E08E0F80930E0391
:100D80008091BB00F0E0E551FD4F8083809110031E
:100D900081116DC081E080930B0384EA61C083E020
:100DA0008093110310929204CFCF809192048032ED
:100DB00008F051C0E091920481E08E0F809392047C
:100DC0008091BB00F0E0EE58FB4F8083BDCF85ECF7
:100DD0008093BC001092110380919204803230F411
:100DE000E0919204F0E0EE58FB4F10826091920483
:100DF00070E0E091F303F091F40382E794E0099549
:100E00001092920436C084E0809311031092710412
:100E100010927004E091F103F091F2030995809132
:100E20007004811105C081E0809370041092500419
:100E3000E091710481E08E0F80937104F0E0E05B3B
:100E4000FB4F80818093BB0090917104809170046E
:100E5000981708F479CF85E88093BC000AC085EC28
:100E60008093BC001092110304C010920F030E94E3
:100E70006E04FF91EF91BF91AF919F918F917F9100
:100E80006F915F914F913F912F910F900FBE0F90F7
:100E90001F90189590E0FC01E751FF4F2491FC0151
:100EA000EF53FF4F3491FC01E355FF4FE491EE23E4
:100EB00009F43CC0222339F1233091F038F4213079
:100EC000A9F0223001F584B58F7D12C0273091F052
:100ED0002830A1F02430B9F4809180008F7D03C0C8
:100EE000809180008F77809380000DC084B58F77CC
:100EF00084BD09C08091B0008F7703C08091B0009D
:100F00008F7D8093B000F0E0EE0FFF1FE152FF4FA6
:100F1000A591B4919FB7F894611104C08C9130955C
:100F2000382302C0EC913E2B3C939FBF0895CF9392
:100F3000DF9390E0FC01EF53FF4F2491FC01E35558
:100F4000FF4F8491882361F190E0880F991FFC0185
:100F5000EB52FF4FC591D491FC01E152FF4FA59197
:100F6000B491611109C09FB7F894888120958223BC
:100F70008883EC912E230BC0623061F49FB7F89404
:100F80008881322F309583238883EC912E2B2C93EC
:100F90009FBF06C08FB7F894E8812E2B28838FBFA0
:100FA000DF91CF9108958F929F92AF92BF92CF928F
:100FB000DF92EF92FF926B017C010E942A054B01A8
:100FC0005C01C114D104E104F104F1F00E942A058E
:100FD000DC01CB0188199909AA09BB09883E934015
:100FE000A105B10570F321E0C21AD108E108F108AA
:100FF00088EE880E83E0981EA11CB11CC114D10498
:10100000E104F10419F7DDCFFF90EF90DF90CF906E
:10101000BF90AF909F908F9008952FB7F8946091F4
:1010200048047091490480914A0490914B042FBF69
:1010300008951F920F920FB60F9211242F933F9392
:101040008F939F93AF93BF938091480490914904ED
:10105000A0914A04B0914B043091470423E0230F40
:101060002D3720F40196A11DB11D05C026E8230FE0
:101070000296A11DB11D20934704809348049093CC
:101080004904A0934A04B0934B0480914C0490917E
:101090004D04A0914E04B0914F040196A11DB11DC5
:1010A00080934C0490934D04A0934E04B0934F044E
:1010B000BF91AF919F918F913F912F910F900FBE54
:1010C0000F901F9018950895CF92DF92EF92FF92A4
:1010D0000F931F93CF93DF936C017A018B01C0E0D4
:1010E000D0E0CE15DF0581F0D8016D918D01D601DC
:1010F000ED91FC910190F081E02DC6010995892BBD
:1011000011F02196EECF7E01C701DF91CF911F91A3
:101110000F91FF90EF90DF90CF90089580E090E0E6
:101120000895FC01538D448D252F30E0842F90E0ED
:10113000821B930B541710F0CF96089501970895D2
:10114000FC01918D828D981761F0828DDF01A80FCF
:10115000B11D5D968C91928D9F5F9F73928F90E0F1
:1011600008958FEF9FEF0895FC01918D828D981760
:1011700031F0828DE80FF11D858D90E008958FEF9D
:101180009FEF0895FC01918D228D892F90E0805C66
:101190009F4F821B91098F739927089580E493E0F4
:1011A0000E94C20821E0892B09F420E0822F0895D3
:1011B000FC01848DDF01A80FB11DA35ABF4F2C91F4
:1011C000848D90E001968F739927848FA689B789C3
:1011D0002C93A089B1898C91837080648C93938DBA
:1011E000848D981306C00288F389E02D80818F7D5D
:1011F00080830895EF92FF920F931F93CF93DF9315
:10120000EC0181E0888F9B8D8C8D981305C0E88957
:10121000F989808185FD26C0F62E0B8D10E00F5FC9
:101220001F4F0F731127E02E8C8DE8120CC00FB6E4
:1012300007FCFACFE889F989808185FFF5CFCE01D7
:101240000E94D808F1CF8B8DFE01E80FF11DE35A03
:10125000FF4FF0829FB7F8940B8FEA89FB8980815A
:1012600080620AC09FB7F894EE89FF896083E8899D
:10127000F98980818370806480839FBF81E090E0E2
:10128000DF91CF911F910F91FF90EF900895CF9331
:10129000DF93EC01888D8823C9F0EA89FB8980817E
:1012A00085FD05C0A889B9898C9186FD0FC00FB650
:1012B00007FCF5CF808185FFF2CFA889B9898C9191
:1012C00085FFEDCFCE010E94D808E7CFDF91CF9107
:1012D000089580E090E0892B29F00E94CE088111CA
:1012E0000C94000008950E94BF19EF92FF920F9393
:1012F0001F93CF93DF93EC01198218821B821A820D
:101300001D821C8261157105B9F17B01FB01019001
:101310000020E9F731978F01061B170BB8016F5FAB
:101320007F4F80E090E00E94F918009759F0998370
:1013300088831B830A832C813D81232B81F4FC014C
:1013400010820DC088819981009711F00E94701859
:10135000198218821D821C821B821A820DC01D8375
:101360000C83B70188819981DF91CF911F910F91F3
:10137000FF90EF900C94D619DF91CF911F910F91B0
:10138000FF90EF9008951F920F920FB60F921124C5
:101390002F933F934F935F936F937F938F939F937D
:1013A000AF93BF93EF93FF9380E493E00E94D8083C
:1013B000FF91EF91BF91AF919F918F917F916F912D
:1013C0005F914F913F912F910F900FBE0F901F9003
:1013D00018951F920F920FB60F9211242F938F938F
:1013E0009F93EF93FF93E0915003F091510380811D
:1013F000E0915603F091570382FD12C090818091D5
:1014000059038F5F8F7320915A03821751F0E09137
:101410005903F0E0E05CFC4F958F8093590301C0C5
:101420008081FF91EF919F918F912F910F900FBE2F
:101430000F901F9018950F931F93CF938C01C62F79
:1014400083E391E00E944704C8010E9447048EE4B0
:1014500092E00E9447046C2F70E080E090E04AE048
:101460000E94060480E493E0CF911F910F910C94A9
:1014700047090F931F93CF93DF938C01EB0183E315
:1014800091E00E944704C8010E9447048EE492E064
:101490000E944704BE010D2E000C880B990B0E9480
:1014A000F0149B01AC010E94D317811102C0BE0150
:1014B00002C060E070E0072E000C880B990B97FFCC
:1014C00003C00E94490403C04AE00E94060480E46D
:1014D00093E0DF91CF911F910F910C9447098F9268
:1014E0009F92AF92BF92CF92DF92EF92FF925C01F8
:1014F0006A017B0183E391E00E944704C5010E94D9
:1015000047048EE492E00E944704A7019601C701B8
:10151000B6010E94D317882319F0C12CD12C760173
:1015200046015701E894B7F82FEF3FEF4FE75FE729
:10153000C501B4010E94D317882309F484C02FEF9A
:101540003FEF4FE75FE4C701B6010E94CE171816C0
:101550002CF485E592E00E94F40369C02FEF3FEF81
:101560004FE75FECC701B6010E94E91487FDF1CF98
:1015700020E030E0A901C701B6010E94E91487FF0D
:1015800009C06DE280E493E00E94FA08F7FAF09453
:10159000F7F8F0942AE037ED43EA5BE3C701B601C0
:1015A0000E94C1164B015C010E949F176B017C01D8
:1015B0000E94EE149B01AC01C501B4010E94C0164B
:1015C0004B015C014AE0C701B6010E9406046EE2CD
:1015D00080E493E00E94FA0820E030E040E251E429
:1015E000C501B4010E944F154B015C010E949F1779
:1015F0006B01E12CF12C4AE0C701B6010E94060400
:10160000C701B6010E94EE149B01AC01C501B401F3
:101610000E94C01620E030E040E251E40E944F15E5
:101620000E949F1780E090E04AE00E94060480E458
:1016300093E0FF90EF90DF90CF90BF90AF909F909E
:101640008F900C9447092FEF3FEF4FE75FE7C501FD
:10165000B4010E94E91418160CF071CF81E592E0F4
:101660007ACF80E493E00E94C208892B29F080E4BD
:1016700093E00E94A008F5CF0895CF93C82F60E0B3
:101680000E944A0761E08C2FCF910C949707CF936B
:10169000DF93CDB7DEB72C970FB6F894DEBF0FBE41
:1016A000CDBF789484B5826084BD84B5816084BDEB
:1016B00085B5826085BD85B5816085BD80916E00F0
:1016C000816080936E001092810080918100826021
:1016D000809381008091810081608093810080915E
:1016E00080008160809380008091B100846080934D
:1016F000B1008091B00081608093B00080917A0049
:10170000846080937A0080917A00826080937A006E
:1017100080917A00816080937A0080917A0080685D
:1017200080937A001092C100E0915003F091510330
:1017300082E08083E0914C03F0914D031082E091B0
:101740004E03F0914F038FEC808310925803E09189
:101750005403F091550386E08083E0915203F091A9
:101760005303808180618083E0915203F0915303A1
:10177000808188608083E0915203F09153038081DF
:1017800080688083E0915203F091530380818F7DC4
:10179000808310921303109212031092C9021092C8
:1017A000EA021092110381E08093100310920B0360
:1017B00061E082E10E944A0761E083E10E944A07FA
:1017C0008091B9008E7F8093B9008091B9008D7FA0
:1017D0008093B90088E48093B80085E48093BC00CE
:1017E00080EA94E09093F2038093F10381EA94E01D
:1017F0009093F4038093F30380ED0E94CA01803636
:1018000009F097C088E80E94C4019093A4028093D5
:10181000A3028AE80E94C4019093A6028093A502C5
:101820008CE80E94C4019093A8028093A7028EE8DE
:101830000E94C4019093AA028093A90280E90E94A9
:10184000C4019093AC028093AB0282E90E94C40170
:101850009093AE028093AD0284E90E94C4019093FC
:10186000B0028093AF0286E90E94C4019093B20255
:101870008093B10288E90E94C4019093B4028093DE
:10188000B3028AE90E94C4019093B6028093B50224
:101890008CE90E94C4019093B8028093B7028EE94C
:1018A0000E94C4019093BA028093B90281EA0E9417
:1018B000CA018093BB0281EE0E94C4019093BD02D5
:1018C0008093BC0283EE0E94CA018093BE0284EE24
:1018D0000E94CA01182F85EE0E94CA0140E1149FA0
:1018E000900111248F70282B3093C0022093BF02E7
:1018F00086EE0E94CA01182F85EE0E94CA0150E1AF
:10190000159F9001112482958F70282B3093C2026D
:101910002093C10287EE0E94CA018093C30265E052
:1019200082EF0E94EA0167EB84EF0E94EA0111E076
:1019300001C010E084E090E00E943D0B85E090E063
:101940000E943D0B87E090E00E943D0B86E090E016
:101950000E943D0B89E090E00E943D0B88E090E002
:101960000E943D0B111118C062E08091E2030E94B9
:1019700097070E940D08DC01CB01805D9740A1090B
:10198000B1098093E6039093E703A093E803B09333
:10199000E90387E38093EF03109215041092160475
:1019A00010921704109218041092190410921A043D
:1019B00010921B0410921C0410921D0410921E041D
:1019C00010921F04109220041092210410922204FD
:1019D000109223041092240480E090E0A0EFB1E480
:1019E0008093250490932604A0932704B0932804A1
:1019F0001092290410922A0410922B0410922C04A5
:101A000080E090E0ACE8B2E480933104909332043B
:101A1000A0933304B093340410923D0410923E041A
:101A2000109240041092410410923F04109242041C
:101A30001092430410924404109238041092370418
:101A4000109346041092450410922D0410922E0417
:101A500010922F041092300410923C0410923B0418
:101A60000E94310B11E00FE164E670E080E090E04D
:101A70000E94D30780914604882309F4E8C00E949D
:101A80005D028DEF0E948F014090C4025090C5020C
:101A90006090C6027090C7022CE2521A21E0620ADE
:101AA00071086C01E12CF12C5EE0CC0CDD1CEE1C0D
:101AB000FF1C5A95D1F74091BF025091C002052EEC
:101AC000000C660B770BE4E1440F551F661F771F70
:101AD000EA95D1F7C41AD50AE60AF70AA091C1021D
:101AE000B091C202A30192010E943A16C61AD70A07
:101AF000E80AF90A30E4D30EE11CF11CFFE0F5948A
:101B0000E794D794C794FA95D1F7A091BE02B0E0BC
:101B1000A30192010E942F164B015C01ABE0B5942A
:101B2000A79497948794AA95D1F740E8940EA11CA6
:101B3000B11CA091C3020A2E000CBB0BA3019201A1
:101B40000E943A16BAE09595879577956795BA956C
:101B5000D1F7A50194010E94AA16DC01CB012AE06D
:101B6000B595A795979587952A95D1F79C01AD01D5
:101B7000405E5F4FA091BC02B091BD020E943A1638
:101B8000DC01CB01905EAF4FBF4FBC01CD013EE009
:101B900095958795779567953A95D1F7A701960121
:101BA0000E94AA166B017C014FE095958795779569
:101BB00067954A95D1F79B01AC010E94AA169B013B
:101BC000AC0167E055954795379527956A95D1F70C
:101BD000A091BB02B0E00E942F16DC01CB0174E0A3
:101BE000B595A795979587957A95D1F7A701960111
:101BF000281B390B4A0B5B0BDA01C90157FF03C0E5
:101C000080E090E0DC0181309105A10539E1B30766
:101C100024F080E090E0A0E0B9E1BC01CD014CE00F
:101C200095958795779567954A95D1F70E94EE141B
:101C300020E030E040E85AE30E944F150E949F17D1
:101C40000E94EE144B015C010E945D0217C180915D
:101C50004504882309F47FC00E94030220915A02A0
:101C600030915B02872E982EA92EBB24A7FCBA9434
:101C7000821A930AA108B108DC01CB0157E0B5959F
:101C8000A795979587955A95D1F7220F331F6C0129
:101C90007D01C21AD30AE108F108A7019601A091BB
:101CA0005C02B0915D020E943A166B017C017BE000
:101CB000F594E794D794C7947A95D1F7A501940148
:101CC000C501B4010E94AA169B01AC01ECE0559538
:101CD000479537952795EA95D1F7A0915E02B09187
:101CE0005F020E943A16DC01CB01FEE0B595A79594
:101CF00097958795FA95D1F7A7019601280F391F77
:101D00004A1F5B1F20937202309373024093740248
:101D100050937502A5E0B0E00E942F16DC01CB01C4
:101D200080589F4FAF4FBF4F692F7A2F8B2F992726
:101D300087FD9A950E94F01420E030E048EC52E4D0
:101D40000E942D176B017C01812C912C30E8A32E71
:101D50003FEBB32EC3C00E94DC028823D1F18091F7
:101D6000E3038B30B0F18D30A8F08551823088F5D7
:101D70006091DD037091DE0376276727762780E088
:101D800090E00E94EE142DEC3CEC4CEC5DE30E94E4
:101D90004F151CC06091DE0370E080E090E00E946F
:101DA000F0142DEC3CEC4CEC5DE30E944F156B0104
:101DB0007C016091DD0370E080E090E00E94F0140F
:101DC0009B01AC01C701B6010E94C1164B015C0129
:101DD00006C0812C912C20ECA22E2FE7B22E0E945F
:101DE000DC02882309F474C08091E3038C3009F489
:101DF00048C018F48B30D1F06BC08551823008F0A8
:101E000067C07090DF03672D6F7770E0762F6627CD
:101E10008091E003682B80E090E00E94EE142DECAE
:101E20003CEC4CEC5DE30E944F1549C06091DF0330
:101E300070E080E090E00E94EE146B017C017090F5
:101E4000E00377FE0AC09B01AC0160E070E080E82F
:101E50009FEB0E94C0166B017C01672D6F7070E0D4
:101E600080E090E00E94F0142DEC3CEC4CEC5DE343
:101E70000E944F15A70196010E94C1166B017C01BB
:101E80002DC07090DF036091E0036F7070E080E020
:101E900090E00E94F0142DEC3CEC4CEC5DE30E94D1
:101EA0004F156B017C01672D70E080E090E00E948F
:101EB000EE149B01AC01C701B6010E94C1166B0173
:101EC0007C0177FE0BC0F7FAF094F7F8F09406C0A7
:101ED000C12CD12C80ECE82E8FE7F82E0E94E10374
:101EE0008034914044F00E94E1038534924034F400
:101EF0000E94E10305C080E491E002C084E492E026
:101F0000092E000CAA0BBB0B9C01AD0120543140E3
:101F100041095109ACE9BFEF0E943D1624E031E0D0
:101F200040E050E00E94101629013A0184E6480E74
:101F3000511C611C711CA5019401C501B4010E94D2
:101F4000D31781110CC08092150490921604A092B0
:101F50001704B09218041092380410923704A701A5
:101F60009601C701B6010E94D317811173C2C092B6
:101F70001904D0921A04E0921B04F0921C041092EF
:101F8000380410923704B201052C000C880B990B11
:101F90000E94F0149B01AC010E94D317811133C041
:101FA00080917A0281110CC00E940D086093760224
:101FB00070937702809378029093790210937A025B
:101FC0000E940D08C0907602D0907702E0907802CF
:101FD000F0907902DC01CB018C199D09AE09BF0993
:101FE000893E9340A105B10550F00E940D08609311
:101FF00076027093770280937802909379025092E0
:102000003C0440923B04F0903D04FF20B9F0209145
:10201000290430912A0440912B0450912C046091A2
:10202000190470911A0480911B0490911C040E9461
:10203000CE1718161CF410933E0419C0EE24E39436
:1020400020912504309126044091270450912804C2
:102050006091190470911A0480911B0490911C04E2
:102060000E94CE1718160CF0E12CE0923E049091DD
:10207000440480913E04992319F0F81609F43FC0F6
:102080008823F9F061E084E00E944A0761E085E07E
:102090000E944A0761E087E00E944A0761E081E10F
:1020A0000E94970760E081E10E944A0761E082E1B7
:1020B0000E94970760E082E10E944A0710933D0466
:1020C0001EC060E084E00E944A0760E085E00E9454
:1020D0004A0760E087E00E944A0761E081E10E94D0
:1020E000970761E081E10E944A0761E082E10E9476
:1020F000970761E082E10E944A0710923D049091A7
:10210000440480914304992321F09091420489175B
:1021100079F0882339F061E089E00E944A07109342
:10212000420406C060E089E00E944A07109242041F
:10213000C0909E02D0909F02E090A002F090A10279
:10214000C114D104E104F10409F4BFC10E940D08D7
:10215000DC01CB018C199D09AE09BF098938934177
:10216000A105B10508F480C160E088E00E944A073B
:1021700010929E0210929F021092A0021092A10251
:1021800029E23CE54FE05EE360912D0470912E045E
:1021900080912F04909130040E94C11660932D0409
:1021A00070932E0480932F04909330040E940D08A6
:1021B00060939A0270939B0280939C0290939D027D
:1021C0001093440480E493E00E94C2081816190694
:1021D00064F480E493E00E94C208181619062CF4F7
:1021E00080913F04882309F416C180913F0488231D
:1021F00009F40EC163EC71E0CE0107960E947509E7
:102200006AE271E085EF93E00E944613BC01CE01C3
:1022100001960E9475098F8198850097A9F06981C0
:102220007A816115710571F049855A852D813E814C
:102230004217530738F00E94D6198D819E819C87E2
:102240008B8710C00E94701889819A8198878F832C
:102250008B819C819A8789878D819E819C878B87C2
:102260001A82198289819A810E9470188CE291E009
:102270000E9447044B855C856F81788580E493E0FC
:102280000E9464088CE591E00E9447040E946A0461
:1022900080E493E00E94470965E371E0CE01079670
:1022A0000E94FD05882349F18091370490913804FC
:1022B000459774F08BE391E00E9447040E946A0402
:1022C00080E493E00E94470910923804109237048A
:1022D0008091390490913A044597BCF18FE591E0E3
:1022E0000E9447040E946A0480E493E00E94470928
:1022F000109238041092370428C06BE771E0CE01C9
:1023000007960E94FD05882319F163E871E080E0DB
:1023100090E00E9446130E9424136093250470935A
:102320002604809327049093280420E030E040E8BE
:102330005FE30E94C0166093290470932A0480937F
:102340002B0490932C04109244040E944F0558C013
:1023500065E871E0CE0107960E94FD05882349F0EB
:1023600063E871E080E090E00E9446130E9424132D
:10237000E2CF6DE871E0CE0107960E94FD0588234B
:1023800089F063E871E080E090E00E9446130E94CB
:102390002413609331047093320480933304909338
:1023A0003404D1CF6AE971E0CE0107960E94FD05A1
:1023B000882381F063E871E080E090E00E9446139A
:1023C0000E94281321E0181619060CF020E0209333
:1023D0004304B9CF80EA91E00E9447044B855C85B5
:1023E0006F81788580E493E00E9464088DEB91E032
:1023F0000E9447040E946A0480E493E00E94470917
:102400000E94310B10923F048F8198850E947018B2
:102410000E94690929CB80E493E00E94A008E09122
:10242000A2028A3071F0AE2FB0E0AB50BC4F8C935B
:10243000EF5FE03218F4E093A202CBCE0093A20249
:10244000C8CEF0E0EB50FC4F10821092A202109325
:102450003F04BFCE80913704909138040196909349
:102460003804809337048FCD8091920281110CC083
:102470000E940D0860938E0270938F0280939002E9
:1024800090939102109392020E940D08C0908E02C8
:10249000D0908F02E0909002F0909102DC01CB018D
:1024A0008C199D09AE09BF09853F9140A105B10571
:1024B00008F486CE0E940D0860938E0270938F02FE
:1024C00080939002909391027BCE80913B049091F7
:1024D0003C040A9724F50E940D08C0909A02D090FF
:1024E0009B02E0909C02F0909D02DC01CB018C19D4
:1024F0009D09AE09BF0981329E44A105B10578F05E
:1025000061E088E00E944A070E940D0860939E02E5
:1025100070939F028093A0029093A10251CE80916C
:10252000860281110CC00E940D0860938202709394
:1025300083028093840290938502109386020E9406
:102540000D08C0908202D0908302E0908402F09047
:102550008502DC01CB018C199D09AE09BF09813DC3
:102560009740A105B10550F00E940D0860938202CA
:1025700070938302809384029093850260E088E0E8
:102580000E944A0710929E0210929F021092A0028F
:102590001092A10215CEE4E3F3E01382128288EEDA
:1025A00093E0A0E0B0E084839583A683B7832AE01C
:1025B00031E031832083E0E4F3E0138212828483EC
:1025C0009583A683B7838CE191E09183808385EC2A
:1025D00090E09587848784EC90E09787868780ECED
:1025E00090E0918B808B81EC90E0938B828B82ECDE
:1025F00090E0958B848B86EC90E0978B868B118E88
:10260000128E138E148EADEDB3E080E115968C938F
:10261000159786E116968C931697E1EDF0E0E4911C
:102620001796EC931797EDEBF0E0E4911896EC9386
:10263000189740E85EE360E070E01D964D935D936F
:102640006D937C9350970895662777270C947A139F
:10265000FC0188279927E89421912032E9F3293059
:1026600010F02E30C8F32B3241F02D3239F468943B
:1026700004C00E947213820F911D219120532A30B1
:10268000C0F31EF4909581959F4F089543E954E05F
:102690000E944B130895FA01A191B081009719F49B
:1026A0001097E1F0CD01DC01CD010D90002011F477
:1026B000C00113C0FB012191222319F02015D9F785
:1026C000F3CFFB012191201519F41E92119606C03B
:1026D0002223C1F70D900020A1F7D001FA01A193A8
:1026E000B08308957AE0979F902D879F802D910D5C
:1026F00011240895A0E0B0E0E0E8F3E10C9448165E
:10270000EC016B016115710519F0FB019183808368
:102710007E01FFEFEF1AFF0A0881802F90E00E94F0
:10272000C814892B11F0E701F3CF0D3239F47E0183
:1027300082E0E80EF11C098111E008C00B3229F497
:102740007E0192E0E90EF11C098110E0E70121977A
:1027500043E050E060E770E0CE010E94D114892B85
:10276000C1F4239645E050E06BE670E0CE010E9494
:10277000D114892B09F42596C114D10419F0F6015E
:10278000D183C0831111F6C060E070E080E89FE75C
:10279000FAC043E050E068E670E0CE010E94D11438
:1027A000892B59F4C114D10409F4E9C0F2E0EF0E09
:1027B000F11CF601F182E082E2C020E030E0A901E4
:1027C000C0E0D0E0F70180EDA82EA00E89E08A15C8
:1027D00030F1912F9260B92E812F887012FF04C0C2
:1027E000811124C0219622C081112197A5E0B0E07B
:1027F0000E942F16DC01CB01880F991FAA1FBB1F57
:102800009C01AD012A0D311D411D511D283989E959
:102810003807480789E1580748F0166006C09EEF60
:10282000A9120AC013FD40C01860B12E8FEFE81A3C
:10283000F80A00811B2DC6CF802F8F7D8534A1F52E
:1028400080818D3211F4106106C08B3221F03196F7
:1028500061E070E004C08181329662E070E08053F4
:102860008A3018F0E61BF70B1FC060E070E060389C
:102870009CE079075CF4DB01AA0FBB1FAA0FBB1F0A
:102880006A0F7B1F660F771F680F711D3196DF017E
:1028900011978C9180538A3050F314FF03C07195C7
:1028A00061957109C60FD71F11FF08C0C114D1046B
:1028B00029F0CF010197F60191838083CA01B90104
:1028C0000E94EE14212F2370233019F04B015C017C
:1028D00006C04B015C01B7FAB094B7F8B09420E0A1
:1028E00030E0A901C501B4010E94E914882309F46C
:1028F0003EC0D7FF06C0D195C195D10907E810E0C9
:1029000002C00FE910E06801F8E1CF1AD10890E2A7
:10291000E92EF12CCE15DF0574F0F80125913591E3
:1029200045915491C501B4010E944F154B015C01C2
:10293000CE19DF09EFCF04501109F594E7940C1577
:102940001D0541F78A2D880F8B2D881F8F3F49F079
:1029500020E030E0A901C501B4010E94E914811111
:1029600006C082E290E09093960480939504C5019E
:10297000B40109C060E070E080E89FEF04C060E04F
:1029800070E080EC9FE7CDB7DEB7ECE00C94641606
:1029900091110C94BC15803219F089508550C8F7FC
:1029A0000895FB01DC014150504088F08D91813445
:1029B0001CF08B350CF4805E659161341CF06B3536
:1029C0000CF4605E861B611171F3990B0895881BEE
:1029D000FCCF0E942B1508F481E00895E89409C00B
:1029E00097FB3EF490958095709561957F4F8F4F42
:1029F0009F4F9923A9F0F92F96E9BB279395F69558
:102A0000879577956795B795F111F8CFFAF4BB0FD5
:102A100011F460FF1BC06F5F7F4F8F4F9F4F16C039
:102A2000882311F096E911C0772321F09EE8872FC3
:102A3000762F05C0662371F096E8862F70E060E07F
:102A40002AF09A95660F771F881FDAF7880F9695F8
:102A5000879597F90895990F0008550FAA0BE0E89C
:102A6000FEEF16161706E807F907C0F01216130650
:102A7000E407F50798F0621B730B840B950B39F490
:102A80000A2661F0232B242B252B21F408950A26F6
:102A900009F4A140A6958FEF811D811D08950E9424
:102AA00062150C94D6150E94C81538F00E94CF15F7
:102AB00020F0952311F00C94BF150C94C51511242A
:102AC0000C940A160E94E71570F3959FC1F3950FB9
:102AD00050E0551F629FF001729FBB27F00DB11DA2
:102AE000639FAA27F00DB11DAA1F649F6627B00D32
:102AF000A11D661F829F2227B00DA11D621F739F1B
:102B0000B00DA11D621F839FA00D611D221F749F28
:102B10003327A00D611D231F849F600D211D822F6F
:102B2000762F6A2F11249F5750409AF0F1F0882396
:102B30004AF0EE0FFF1FBB1F661F771F881F9150C3
:102B40005040A9F79E3F510580F00C94BF150C949E
:102B50000A165F3FE4F3983ED4F386957795679520
:102B6000B795F795E7959F5FC1F7FE2B880F911DED
:102B70009695879597F9089599278827089597F945
:102B80009F6780E870E060E008959FEF80EC089513
:102B900000240A941616170618060906089500243C
:102BA0000A9412161306140605060895092E0394B6
:102BB000000C11F4882352F0BB0F40F4BF2B11F42A
:102BC00060FF04C06F5F7F4F8F4F9F4F089557FD89
:102BD0009058440F551F59F05F3F71F04795880F8B
:102BE00097FB991F61F09F3F79F087950895121622
:102BF00013061406551FF2CF4695F1DF08C01616CE
:102C000017061806991FF1CF86957105610508947E
:102C10000895E894BB2766277727CB0197F9089595
:102C2000052E97FB1EF400940E94271657FD07D02F
:102C30000E94791607FC03D04EF40C942716509589
:102C40004095309521953F4F4F4F5F4F0895909598
:102C50008095709561957F4F8F4F9F4F08950E948B
:102C60009B16A59F900DB49F900DA49F800D911D64
:102C700011240895B7FF0C942F160E942F16821B63
:102C8000930B08952F923F924F925F926F927F9293
:102C90008F929F92AF92BF92CF92DF92EF92FF926C
:102CA0000F931F93CF93DF93CDB7DEB7CA1BDB0B18
:102CB0000FB6F894DEBF0FBECDBF09942A883988BD
:102CC00048885F846E847D848C849B84AA84B984C4
:102CD000C884DF80EE80FD800C811B81AA81B981D0
:102CE000CE0FD11D0FB6F894DEBF0FBECDBFED01E4
:102CF0000895A1E21A2EAA1BBB1BFD010DC0AA1F3D
:102D0000BB1FEE1FFF1FA217B307E407F50720F054
:102D1000A21BB30BE40BF50B661F771F881F991FCF
:102D20001A9469F760957095809590959B01AC0118
:102D3000BD01CF010895A29FB001B39FC001A39F21
:102D4000700D811D1124911DB29F700D811D1124E4
:102D5000911D0895DB018F939F930E942F16BF91C1
:102D6000AF91A29F800D911DA39F900DB29F900DDA
:102D700011240895EE0FFF1F0590F491E02D0994A2
:102D80005058BB27AA270E94D8160C94D6150E942B
:102D9000C81538F00E94CF1520F039F49F3F19F480
:102DA00026F40C94C5150EF4E095E7FB0C94BF15C2
:102DB000E92F0E94E71558F3BA17620773078407D3
:102DC000950720F079F4A6F50C9409160EF4E09519
:102DD0000B2EBA2FA02D0B01B90190010C01CA01D5
:102DE000A0011124FF27591B99F0593F50F4503E80
:102DF00068F11A16F040A22F232F342F4427585F72
:102E0000F3CF469537952795A795F0405395C9F789
:102E10007EF41F16BA0B620B730B840BBAF0915041
:102E2000A1F0FF0FBB1F661F771F881FC2F70EC0E0
:102E3000BA0F621F731F841F48F4879577956795B3
:102E4000B795F7959E3F08F0B0CF9395880F08F09F
:102E50009927EE0F9795879508950E9441170C9436
:102E6000D6150E94CF1558F00E94C81540F029F4DD
:102E70005F3F29F00C94BF1551110C940A160C9465
:102E8000C5150E94E71568F39923B1F3552391F313
:102E9000951B550BBB27AA2762177307840738F0C9
:102EA0009F5F5F4F220F331F441FAA1FA9F335D026
:102EB0000E2E3AF0E0E832D091505040E695001CDA
:102EC000CAF72BD0FE2F29D0660F771F881FBB1F94
:102ED000261737074807AB07B0E809F0BB0B802D72
:102EE000BF01FF2793585F4F3AF09E3F510578F09E
:102EF0000C94BF150C940A165F3FE4F3983ED4F38C
:102F0000869577956795B795F7959F5FC9F7880F71
:102F1000911D9695879597F90895E1E0660F771FC3
:102F2000881FBB1F621773078407BA0720F0621B54
:102F3000730B840BBA0BEE1F88F7E09508950E947F
:102F4000EF1588F09F5798F0B92F9927B751B0F037
:102F5000E1F0660F771F881F991F1AF0BA95C9F71D
:102F600014C0B13091F00E940916B1E008950C949C
:102F70000916672F782F8827B85F39F0B93FCCF34F
:102F8000869577956795B395D9F73EF4909580959A
:102F9000709561957F4F8F4F9F4F08950E942B151D
:102FA00008F48FEF08950E942B15880B990B089554
:102FB0000F931F93CF93DF938230910510F482E03B
:102FC00090E0E0919904F0919A0420E030E0A0E0D4
:102FD000B0E0309719F14081518102811381481787
:102FE0005907C8F08417950769F4109731F01296C5
:102FF0000C93129713961C9327C000939904109377
:103000009A0422C02115310519F04217530718F40C
:103010009A01BD01EF01DF01F801DBCF2115310578
:10302000F9F0281B390B2430310580F48A819B810B
:103030006115710521F0FB019383828304C0909395
:103040009A0480939904FE01329644C0FE01E20F77
:10305000F31F8193919322503109398328833AC019
:103060002091970430919804232B41F42091020180
:10307000309103013093980420939704209100012C
:10308000309101012115310541F42DB73EB7409132
:10309000040150910501241B350BE0919704F09138
:1030A0009804E217F307A0F42E1B3F0B28173907EB
:1030B00078F0AC014E5F5F4F2417350748F04E0F94
:1030C0005F1F50939804409397048193919302C09B
:1030D000E0E0F0E0CF01DF91CF911F910F910895D3
:1030E000CF93DF93009709F481C0FC0132971382DC
:1030F0001282A0919904B0919A04109781F42081D2
:103100003181820F931F20919704309198042817E2
:10311000390751F5F0939804E093970467C0ED01E7
:1031200020E030E0CE17DF0740F44A815B819E014A
:1031300041155105F1F0EA01F5CFD383C2834081F7
:103140005181840F951FC817D90759F48881998137
:10315000840F951F0296918380838A819B8193833C
:1031600082832115310529F4F0939A04E0939904A0
:103170003DC0E901FB83EA8349915991C40FD51FF2
:10318000EC17FD0761F480819181840F951F0296F1
:10319000E90199838883828193819B838A83E0E01C
:1031A000F0E012968D919C911397009719F0FD0114
:1031B000DC01F7CF8D919C9111979D012E5F3F4FC0
:1031C000820F931F20919704309198042817390794
:1031D00069F4309729F410929A041092990402C06D
:1031E00013821282B0939804A0939704DF91CF9139
:1031F0000895A0E0B0E0EFEFF8E10C944616EC0182
:10320000009721F4CB010E94D817B4C0FC01E60F4F
:10321000F71F9C0122503109E217F30708F4A8C0F8
:10322000D9010D911C91119706171707B0F00530C1
:10323000110508F49BC0C80104978617970708F486
:1032400095C002501109061B170B019311936D9342
:103250007C93CF010E94701889C05B01A01AB10A4B
:103260004C01800E911EA0919904B0919A04612C9A
:10327000712CE12CF12C109709F446C08D919C9192
:103280001197A815B905B1F56C0142E0C40ED11C27
:10329000CA14DB0478F14C018A189B08640142E0EF
:1032A000C40ED11C1296BC9012971396AC91B5E047
:1032B000CB16D10440F0B282A38391828082D901DF
:1032C0006D937C9309C00E5F1F4F800F911FF90112
:1032D00091838083EB2DFA2FE114F10431F0D701B3
:1032E0001396FC93EE93129741C0F0939A04E093E7
:1032F00099043CC06816790608F43C017D011296D9
:103300000D90BC91A02DB7CF809197049091980417
:1033100088169906E1F466167706C8F480910001D4
:1033200090910101009741F48DB79EB7409104013F
:1033300050910501841B950BE817F907C8F4F09329
:103340009804E0939704F901718360830FC0CB0167
:103350000E94D8177C01009759F0A801BE010E9475
:10336000C419CE010E947018C70104C0CE0102C06A
:1033700080E090E0CDB7DEB7EEE00C94621681E01D
:1033800090E0F8940C94DD19FB01DC0102C001907F
:103390000D9241505040D8F70895FB01DC018D910A
:1033A000019080190110D9F3990B0895FB01DC01FC
:0E33B00001900D920020E1F70895F894FFCFF0
:1033BE0000009B04200000000000FB04CE048E08D9
:1033CE00A204C604B204A30400000000FA086408B4
:1033DE0091084709C208A008B4083D007B22434D5E
:1033EE0044223A22005052494E54007B22455252FA
:1033FE004F52223A20222054656D706572617475A9
:10340E007265206E6F74207265616420227D007B70
:10341E00224552524F52223A2022204C7578206E6D
:10342E006F74207265616420227D006D61785F7417
:10343E006D70002C006D696E5F746D70006D61783B
:10344E005F68756D6964697479006C69676874008A
:10345E007B224552524F52223A2022556E6B6E6F8E
:10346E00776E20636F6D6D616E6420270027227D5D
:10347E00000D0A007B22737461747573223A7B000F
:10348E0074656D70657261747572650070656C74CB
:10349E006965725F636F6F6C5F73746174757300CF
:1034AE0068756D69646974795F66616E5F73746166
:1034BE007475730077617465725F766F6C756D6588
:1034CE000076697369626C655F6C757800736F69FD
:1034DE006C5F6D6F697374757265006D697373657A
:1034EE00645F74656D705F726561647300626D65B3
:1034FE0032383000626D70323830007D7D00223AF5
:0A350E0000696E66006F766600002B
:00000001FF
